:020000040800F2
:100000000004002075780008A71D0008A71D00083F
:10001000A71D0008A71D0008A71D0008000000007C
:10002000000000000000000000000000A71D000804
:10003000A71D000800000000A71D0008A71D00085C
:10004000A71D0008A71D0008A71D0008A71D000880
:10005000A71D0008A71D0008A71D0008A71D000870
:100060008B250008A71D0008A71D0008A71D000874
:10007000A71D0008A71D000847500008A71D00087D
:10008000A71D0008A71D00081D400008A71D0008A7
:10009000A71D0008A71D0008A71D0008A71D000830
:1000A000A71D0008A71D0008A71D0008A71D000820
:1000B0006B5500080B4500088F550008A71D000868
:1000C000A71D0008A71D0008A71D0008A71D000800
:1000D000A71D000813500008A71D0008A71D000851
:1000E00043270008A71D0008A71D0008A71D00083A
:1000F000A71D0008A71D0008A71D0008A71D0008D0
:10010000A71D0008A71D0008A71D0008A71D0008BF
:10011000A71D0008A71D0008A71D0008A71D0008AF
:10012000A71D0008A71D0008A71D0008A71D00089F
:1001300010B4DFF88817DFF8880701220A7301235B
:1001400001F13A02022413714368136001224A74D8
:100150008B6001F13F0201231371036913600122D7
:100160008A75C1F80D3001F1440201231371C3698E
:1001700013600222CA76C1F8123001F1490202234B
:100180001371836A1360022281F82020C1F81730AE
:1001900001F14E0202231371436B1360022281F8B6
:1001A0002520CB6101F1530202231371036CC1F8C6
:1001B0002130136001F126020223137101F158036B
:1001C0001C71C46C14601C6001F12B0202231371BA
:1001D000022401F15D031C71846D14601C6001F147
:1001E000300202231371022401F162031C71446E78
:1001F00014601C6001F1350202231371022401F125
:1002000067031C71006F1060186000200860486070
:100210000320DFF8A41C48725871987110BC704715
:1002200080B50021042001F090FA0121052001F0A1
:100230007AFA0021082001F088FA0121092001F052
:1002400072FA0121DFF8740C01F00CFB0021102080
:1002500001F07BFA0121112001F065FA0021202034
:1002600001F073FA0121212001F05DFA0021402004
:1002700001F06BFABDE804400121402001F053BABF
:1002800080B52020ADF80000694610208DF80300ED
:1002900002208DF80200DFF82C0601F07BFA4FF403
:1002A0000040ADF80000694610208DF803000220E0
:1002B0008DF80200DFF8100601F06CFA4FF4806050
:1002C000ADF80000694610208DF8030002208DF87B
:1002D0000200DFF8EC0B01F05DFA01BDF0B5A7B04C
:1002E00001F0E5FC5A28DFF8DC4BDFF8DC6BDFF8C7
:1002F000C85BDFF8D87B22D164223946002001F0A8
:10030000E4FB0BA801F049FCDFF8B0050BA9702253
:1003100001F01EFD01F082FC287401F08BFC2876B0
:1003200001F098FC287701F0A1FCA885684601F04F
:10033000A8FC304669462C2201F0FAFC64E05A2001
:1003400001F0AFFC0820B0704FF41670308202202C
:10035000F0730020707009203071DFF8780B706145
:10036000DFF8740BB0610F20A88500207085FFF7BF
:10037000DFFE012085F820002522022020710A21BD
:1003800006F1200001F010FD38461921DFF8502B4E
:1003900040F8042B032300F8013B022300F8013B43
:1003A00040F8042B032300F8013B022300F8013B33
:1003B00040F8042B032300F8013B022300F8013B23
:1003C00040F8042B032300F8013B0223491E00F8E8
:1003D000013BDDD12B7664223946002001F065FB1C
:1003E000DFF8D80401F081FB287C01F00FFC287EA7
:1003F00001F01AFC287F01F027FCA88DC0B201F0A3
:100400002FFC304601F038FC287C2073287A40F01D
:1004100021002872DFF8A40490F86C00687201F0E3
:1004200034F8286B40F40000286327B0F0BD70B5A5
:1004300082B01020ADF8000004208DF803000220E7
:100440008DF802006946DFF8784ADFF8986A20469E
:1004500001F0A0F9002500E000251021204601F060
:10046000F6F90028F8D16D1CB542F6D373BD10B56E
:10047000FFF7D6FE01F0B6FC01F0E6FCFFF7D7FF70
:1004800001F000FDFFF7FCFE2021DFF83804DFF863
:10049000284A0161C04601F09EFD322001F091FE24
:1004A000002001F00AFD01F01BFAFFF717FF01F031
:1004B000F6FE02F0A1FA03F077FD03F0D9FD03F098
:1004C00069FF04F07BF804F041FB04F028FC04F021
:1004D000D8FC0020A07501F0CCFC01F0B8FC01F0C4
:1004E000BEFC002001F0A6FC94F82000042818BFF0
:1004F000052805D1207C012818BF002001F090FCC0
:10050000206B40F4007020630120607510BDDFF89F
:10051000B4190A794B7D934208BF002809D04A7567
:100520000AB97DA003E0012A0CBFB5A0C5A002F066
:1005300013BE704780B5DFF88019DFF8AC2991F859
:10054000201013788B4208BF00282AD0022911708E
:10055000DFF8740306D14FF400414161C0460FF249
:10056000A80007E0012909D14FF400414161C046CC
:100570000FF29C00BDE8024002F0C5BD05294FF412
:10058000004104D101F06AF90FF28C0003E001612F
:10059000C0460FF28C0002F0B6FDBDE8014004F049
:1005A00034B801BD80B5DFF81019DFF8402991F8A3
:1005B000201013788B4208BF002824D00229117024
:1005C000C14806D14FF400414161C0460FF23800E6
:1005D00015E0012906D14FF400414161C0460FF2F8
:1005E00030000CE005294FF4004104D10161C04600
:1005F0000FF2240003E00161C0460FF22400BDE8C1
:10060000024003F0F5BA01BD55534220000000003E
:100610004C5342200000000043572F4200000000CE
:1006200043572F41000000000828DFF89C1864D8C9
:10063000DFE800F0050B121B2128383F4F004878F7
:10064000002868D101204870704788780F28ACBF17
:100650000F20401C88707047088AB0F5966FACBFB9
:100660004FF49660401C08827047C878002852D129
:100670000120C870704708790928ACBF0920401CC8
:10068000087170474869DFF86828904201D34A61D1
:100690007047DFF82428127AD2064CBF6430401C21
:1006A00048617047C87B1D28ACBF1D20401CC87323
:1006B00070478869DFF83C28904201D38A6170470F
:1006C000DFF8F427127AD2064CBF6430401C8861F0
:1006D0007047DFF8E427127AB1F92A00D2064CBF3E
:1006E0006430401C488542F21072B1F92A009042F1
:1006F00011DB42F20F70488570474018027E252AB0
:1007000008BF002204D08A7B252AACBF0022521CDD
:100710008A73897B01767047200000000828DFF883
:10072000A8175ED8DFE800F0050B121B2127363D25
:100730004B004878012862D10020487070478878C3
:100740000228B4BF0120401E88707047088AB0F5A7
:10075000FA7FD4BF4FF4FA70401E08827047C87801
:1007600001284CD10020C87070470879002846D075
:10077000401E087170474869002840D0DFF83827CC
:10078000127AD20603D5642839D3643800E0401EBB
:1007900048617047C87B0228B4BF0120401EC8735F
:1007A0007047886958B3DFF81027127AD20603D54C
:1007B000642824D3643800E0401E88617047DFF865
:1007C000F826127AB1F92A00D2064CBF6438401ECE
:1007D0004885DFF8782DB1F92A0090420FDA4A8572
:1007E00070474018027E252A08BF242204D08A7B45
:1007F000002A0CBF2522521E8A73897B017670471E
:100800004D000000052802D0072809D011E0DFF8CC
:10081000B80641696422B1FBF2F15143416170476E
:10082000DFF8A40681696422B1FBF2F151438161D2
:100830007047DFF88406017A01F0EF0101721EA013
:1008400002F066BC4C000000DFF86C1691F8202026
:1008500000EB80035800022A02D100F2DC507047FE
:10086000012A02D1A0F2DC5070478A7D002A04BF21
:10087000097C012904D1DFF85016B1F92A100818B3
:100880007047DFF8340690F82010022902D1DFF813
:10089000C40C7047012902D1DFF8BC0C7047817D80
:1008A00041B9007C012806BFDFF81C064069DFF86B
:1008B000300D704700207047202020006825002060
:1008C000000000200010014000180140F8B5DFF8DA
:1008D000E865306B00240128C0F2968296F820105B
:1008E000042911BF0529DFF8DC15097B012900D097
:1008F00000213174DFF8AC1C084200F08A80317AA4
:1009000020F480708A0630630AD5000208D5C80733
:100910004CBF0FF608300FF60C3002F0BFFB04E0BE
:10092000480744BFB07A02F0BCFB356B307A2A022C
:1009300000F004010FD511B100F0E0FD0EE0DFF88A
:10094000087D07F16C01C0074CBF087848787072C9
:1009500000F09BFD02E009B900F0ABFD307AC00663
:100960000AD5280244BFBBA002F0D2FB3068642144
:10097000B0FBF1F048433060317A306B01F00C028B
:10098000082A16D1000244BFB3A002F0C6FB3068AB
:10099000DFF8B47C02F0C6FB306B3A68C01500F09B
:1009A00001013068101802F03CFB30683968081803
:1009B0001CE001F08401802911D1000244BFA7A0EE
:1009C00002F0ABFB306802F0ADFB306BDFF8782C47
:1009D0005268C01500F001013068101803E0C0151E
:1009E00000F00101306802F01CFB3068DFF8605C49
:1009F000FFF72AFFA96904F0CFF9FFF742FFA969C1
:100A000004F0F1F8707A03F06DFB306B002800F011
:100A1000FB81306BDFF83C1C084219D0716B20F071
:100A20000100C901306305D5307DFFF7BBFD00F043
:100A300079FD09E0C01500F00100FFF77BFD307A79
:100A4000400758BF00F035FD306B002800F0DC8116
:100A5000306BDFF8041C08421CD020F0200030630B
:100A6000307C012818BF002001F0DAF9DFF85414B7
:100A7000307C8A7D824202D1326B120206D58875A3
:100A800000280CBFB7A0B8A002F06BFB306B0028A9
:100A900000F0BA81306BB0F1807F80F2B681716B6B
:100AA000002940F0B28110F0801F16D020F08000A5
:100AB000306303F090FA40F6C4114843000B0B2159
:100AC0004843B0636421B0FBF1F03085308D02F013
:100AD00015FB306B002800F09781306BDFF87C1B32
:100AE000084248D020F48060306303F089FA40F275
:100AF0003F21B063884228BF09240FD2B0F5B47FEC
:100B000006D9A0F5B4704721B0FBF1F0841D05E0D3
:100B1000152803D314383821B0FBF1F4E0B202F009
:100B200085FBDFF82C5B2879E4B284421FD3F0B157
:100B30000020B07501F09DF901F089F901F08FF9FD
:100B4000002001F077F996F82000042818BF052846
:100B500005D1307C012818BF002001F061F9306B0D
:100B600040F40070306303F048F80120B084306B2B
:100B7000002800F04981306BDFF8E41A08424CD0BD
:100B800020F40060306303F02DFA40F23A41B06384
:100B9000884228BF0B2411D240F20331884206D389
:100BA000A0F202303E21B0FBF1F0841D06E01528D2
:100BB00023BF14387D21B0FBF1F40024E4B22046B9
:100BC00004F062FAF16B04F06FFA07461DD2F06B85
:100BD00004F07CFADFF88C2ADFF88C3A04F09EFAF5
:100BE00004460D46384604F071FADFF8802ADFF833
:100BF000803A04F093FA22462B4604F061FB04F09D
:100C0000D3FB074604F018FC0446F763E0B202F099
:100C10003FFB306B002800F0F780306BDFF8541A90
:100C2000084269D020F48050306303F0F0F940F6B8
:100C30005D71B063884228BF19242ED240F6CD41A1
:100C400088420DD3A0F6CC40A421B0FBF1F000F116
:100C5000150422E0545300005249540058495400EE
:100C600040F66911884207D3A0F66810D921B0FB7D
:100C7000F1F000F1110410E0842807D3833840F22A
:100C80004511B0FBF1F000F10A0406E0212823BF72
:100C900020380B21B0FBF1F40024E4B2204604F02C
:100CA000F3F9316C04F000FA07461DD2306C04F001
:100CB0000DFADFF8B029DFF8B03904F02FFA044656
:100CC0000D46384604F002FADFF8A029DFF8A03913
:100CD00004F024FA22462B4604F0F2FA04F064FBF6
:100CE000074604F0A9FB04463764E0B202F06DFA4F
:100CF000306B002800F08880306BDFF87C190842E8
:100D00000BD020F002003063307E02F0CFF9307E4D
:100D100001F0D3F8306B002876D0306BDFF85C1927
:100D2000084208D020F004003063307F02F0C3F99D
:100D3000306B002868D0306BDFF8441908421AD0B5
:100D400020F010003063C01500F00100FFF7DFFB5A
:100D50005C495B48097902294FF4806106D1416101
:100D6000C04605E0200000004E0000000161C046C2
:100D7000306B002848D0306BDFF80819084233D0B8
:100D800020F400703063DFF8C858B07D68B950A017
:100D900002F0A4F9317A306801F00C02082A15D16A
:100DA000DFF8A4180968081810E04CA002F096F9C2
:100DB000317A306801F00C02082A07D001F0840172
:100DC000802903D1DFF8801849680818FFF73CFD37
:100DD000A96903F0E1FFFFF754FDA96903F003FFE0
:100DE00002F0D2F9306B78B1306B00020CD502F012
:100DF00037F902F039F9306B000205D501F056FEE3
:100E0000306B20F400003063F1BDC10123D520F028
:100E100080703063307AC00605D530686421B0FB3D
:100E2000F1F048433060327D3168B07ADFF8205805
:100E300002F0ECFE347500F075FB3068FFF704FD3E
:100E4000A96903F0A9FFFFF71CFDA96903F0CBFE18
:100E5000306B0028D8D0306B810109D520F00070AC
:100E60003063B08DC0B202F03EF9306B0028CBD0B9
:100E7000306B4101BFD520F080603063DFF8D05780
:100E8000307AC00644BF2878FFF7BCFC287802F00F
:100E900007FE287802F0BCFD3068FFF7D5FCA96991
:100EA00003F07AFFFFF7EDFCA96903F09CFE306BBD
:100EB0000028A0D1F1BD0000D8250020000230009C
:100EC000000C01400C270020A026002090220020CA
:100ED00052580000B64C890080F0FA0254580000C5
:100EE000E8C10A00C1C62D004F270020502700206E
:100EF0007F969800FFE0F50538B5DFF88C4794F849
:100F00002000022818BF012837D1DFF88007DFF85A
:100F100080270178127881F001010A4209D001216D
:100F20000170A17500F01AFB206B40F40070206383
:100F300023E0114321D101700020A07500F099FF3A
:100F400000F085FF00F08BFF002000F073FF94F8A5
:100F50002000042818BF052805D1207C012818BFCF
:100F6000002000F05DFF206B40F400702063A08C37
:100F700018B10020A08402F043FEDFF8185705F1F5
:100F8000100001F0B9FA002800F04582687C401E8C
:100F9000072800F23C82DFE810F008004500A700B7
:100FA000E70036018701D1011102606B400100F1B9
:100FB0002E82A07D002840F02A82297C012900F0A1
:100FC0002682022940F02382607D002800F01F82E3
:100FD00000206075DFF8C016E07D421CD2B2002010
:100FE00000F063FDDFF8600600F07FFD207C00F07C
:100FF0000DFE207E00F018FE207F00F025FEA08D63
:10100000C0B200F02DFEDFF8480600F035FE01F01A
:101010004FFD642001F0D5F82021DFF88006416102
:10102000C046F4E1606B410100F1F181A17D00292E
:1010300040F0ED81297C012938D1C10109D520F08A
:1010400080706063206B40F40000206300F06AFA57
:10105000EEE0217A88060BD501F0DF0040F00400B5
:101060002072206B40F02000206300F047FA18E067
:1010700001F0FB0040F020002072C007DFF8C82517
:1010800002F16C0505D50FF2943002F007F82878CC
:1010900004E00FF2903002F001F86878607200F01E
:1010A000F4F9206B40F221110843AFE1022940F02E
:1010B000AE81207A400740F1AA8100F01FFA00209B
:1010C00001F0F8FC606B40F080706063206B40F0D2
:1010D000807040F02100206301202075207AC00636
:1010E00040F19581CCA0EDE0606B410100F18F8172
:1010F000A17D002940F08B81297C012919D194F828
:101100002020012A04D1297D042904D0052102E0F0
:10111000022A18BF022184F82010C001216B4CBFA5
:1011200041F0807041F480702063206B40F021001A
:101130006CE1022940F06B8194F82020042A18BF4A
:10114000052A40F06481217C00290CBF0121002187
:1011500029732174C001216B41F02001216300F14A
:10116000568141F4807051E1606B410100F14F8183
:10117000A17D002940F04B81297C012929D100283B
:1011800040F04581217A880640F14181DFF8B8249A
:10119000880702F16C050AD501F0FD0040F001005E
:1011A00020720FF2782001F079FF287809E001F031
:1011B000FE0040F0020020720FF2682001F06EFF86
:1011C0006878607200F061F9206B40F221110843E9
:1011D0001CE1022940F01B8194F82020042A10D041
:1011E000052A40F01481042184F82010C0012975DB
:1011F00003D5206B40F080702063206B40F001002D
:1012000004E10521F0E7A07D002840F00081297C61
:10121000012932D1606B41010ED520F080606063FE
:10122000206B40F40000206303F05AF900F00FFE39
:10123000002001F03FFCEAE0217A8A060ED568B969
:1012400008060BD401F0F70040F080002072B4A033
:1012500001F063FF206B40F48070D7E0080640F196
:10126000D68001F07F002072B9A001F056FF01F096
:101270005EFF206B40F48070C8E0022940F0C78018
:1012800001F018FC606BDFF8C81340F08060606309
:10129000206B40F08060206300200870207AC00638
:1012A00040F1B5805CA00DE0A07D002840F0AF804B
:1012B000297C01291ED1217AC80606D501F0EF004C
:1012C0002072A3A001F024FFA1E041F010002072E1
:1012D00051A001F01DFF616B206BCA0148BF40F0B7
:1012E000807000F19380490154BF40F4807040F059
:1012F00080608BE0022940F08A80217A88060FD531
:10130000606B68B908070BD401F07F0040F008005B
:101310002072A5A001F001FF206B40F4807075E001
:10132000080774D501F0F700207289A001F0F5FEDE
:1013300001F0FDFE206B40F4807067E0606B4001BF
:1013400065D4297C01292ED1217A48061FD501F0C8
:10135000BF00207203F0C8F90020A07500F089FDDD
:1013600000F075FD00F07BFD002000F063FD94F8B7
:101370002000042818BF052805D1207C012818BFAB
:10138000002000F04DFD206B40F400703EE094F82A
:101390002020042A18BF052A39D141F040002072CC
:1013A00003F08CF933E0022931D1207F411E8941BD
:1013B000206BC90F217740F0040027E0606B10F02C
:1013C000A06F04BFA17D002921D1297C012915D15D
:1013D00038B1B0F1007F1AD10020606301F088FEBF
:1013E00015E02879022807BF002093A1022097A1C9
:1013F00028712960206B40F0100007E0022906D117
:1014000040F000706063206B40F000702063BDE826
:10141000314001F077B831BD5453000056464F2F8C
:101420004120000056464F2F4220000010B5FFF724
:1014300063FDFFF74BFA944890F82010042918BF79
:10144000052912D1017A490602D503F089F90CE089
:101450007F49C978406B012908BF002802D103F0F9
:10146000E3F802E008B903F074FA03F09EFD20B13E
:1014700003F098FD040000D000E010BD03F098FDDB
:101480002046BDE8104003F0AFBD7F486E49427A68
:1014900002EB82025118027A93074FBF3A3142F0B1
:1014A0000102027208310A68097980F8201002608E
:1014B00070477548017ACA070ED5417A624AD0F85A
:1014C00000C001EB81039B1843F808CF90F820007F
:1014D000187182F86C10704789070ED5417A5A4A04
:1014E000D0F800C001EB81039B1843F83ACF90F885
:1014F0002000187102F16C00417070476248664923
:10150000827A02EB42035A005258026001EB430216
:1015100001EB430112794272497980F8201070473B
:101520005849540058485C4A817A01EB410302EB68
:10153000430203681360437A137190F820305371AB
:10154000C27D8A4238BFC17570470000F1D8FFFFE5
:10155000202020001C5A8900644E890080B500F0CC
:1015600083FC00F071FC002000F05AFC464890F823
:101570002000042818BF052809D100F070FC0120C4
:1015800000F058FCBDE80240454803F0E8BF00F019
:1015900061FC002000F04EFCBDE80240404803F032
:1015A000E1BF0000000180005249540010B5364CE4
:1015B0000020A07500F05DFC00F049FC00F04FFC3D
:1015C000002000F037FC94F82000042818BF0528FC
:1015D00005D1207C012818BF002000F021FC23E069
:1015E0002051890010B5284C0120A07500F03CFC6A
:1015F00000F02AFC002000F013FC94F820000428DE
:1016000018BF052808D000F025FC002000F012FCCF
:10161000234803F0A7FF07E000F021FC012000F0C1
:1016200009FC1F4803F09BFF206B40F4007020630F
:1016300010BD1548807D7047200000001248807D55
:1016400080F0010070470000682500204C00000079
:10165000A0260020010080002000800000048000FF
:1016600000088000CDCCCCCCCCCCEC3F989999999B
:101670009999B93F001080000200800004008000AA
:101680001000800000028000D82500205127002093
:101690002D2700200C270020902200200010014060
:1016A0000008004010B432490A6802F00C02082A0F
:1016B0000DD10A680B68C2F38342921CDB0302D48B
:1016C0002C4B5A4304E02C4B5A430B6800E02A4A47
:1016D00002600B68294A0468C3F303139B5CDC4077
:1016E00044600B684468C3F302239B5CDC40846065
:1016F0000B684468C3F3C2239B5CDC40C460096888
:10170000C368C1F381318918097CB3FBF1F1016130
:1017100010BC70471A4A0029116814BF084321EA17
:10172000000010607047174A0029116814BF084371
:1017300021EA000010607047134A0029116814BFA5
:10174000084321EA000010607047104A0029116820
:1017500014BF084321EA0000106070470C4A0029BA
:10176000116814BF084321EA0000106070470000B0
:101770000410024000093D0000127A006C120020A3
:1017800014100240181002401C1002400C100240BD
:10179000101002402DE9F041CC78002204F00F0334
:1017A000E40644BF8C7823430C88E5B21DB3D0F81F
:1017B00000C001250F2605FA02F707EA0408B8451C
:1017C00014D14FEA820E06FA0EF82CEA080C03FA3E
:1017D0000EFE4EEA0C0C91F803E0BEF1280F08BF94
:1017E000476103D0BEF1480F08BF0761521C082AA9
:1017F000E1D3C0F800C0FF2C27DDD0F804C00022E0
:1018000001250F2602F1080705FA07F707EA040881
:10181000B84515D14FEA820E06FA0EF82CEA080CEC
:1018200003FA0EFE4EEA0C0C91F803E0BEF1280F0D
:1018300008BF476191F803E0BEF1480F08BF076198
:10184000521C082ADED3C0F804C0BDE8F0818068CD
:101850000022084218BF01221046704701617047FC
:101860004161704770B41C4A146800F44016B6F524
:10187000401FC0F3034583B206D1156825F070659B
:1018800024F0706415600CE0C60203D5032606FA46
:1018900005F503E0450D2D0103FA05F5AC4344F0D1
:1018A000706421B1400D000103FA00F0044314609C
:1018B00070BC704730B4094B01F0030221F0030102
:1018C0009200CC580F259540AC43CC509040CC585A
:1018D0002043C85030BC704704000140080001405C
:1018E00080B500F0A2FB00F055FB00F09EFBBDE8C8
:1018F000014000F0AEBB2DE9F84F0646154688467C
:10190000E81D811000EB51704FEA403A012000249D
:1019100004E00020083D0836641CE4B2B4EB1A4F22
:1019200080F286803004000E00F00700ADB2400067
:10193000092D40F0A00908EBC40728DA00F075FB78
:10194000484600F0D4FB00F0B3FB01281DD0F0B2F4
:1019500000F0CDFB00F0ACFB012816D05FFA85FB50
:10196000BBF1000F0AD017F8010B00F0C0FB00F02C
:101970009FFB012809D0BBF1010BF4D100F069FBFA
:10198000082000F01EFC0120C6E70020C4E700F09C
:101990004CFB484600F0ABFB00F08AFB0128B8D0B6
:1019A000F0B200F0A4FB00F083FB0128B1D038783E
:1019B00000F09DFB00F07CFB0128AAD0787800F0B5
:1019C00096FB00F075FB0128A3D0B87800F08FFBE0
:1019D00000F06EFB01289CD0F87800F088FB00F046
:1019E00067FB012895D0387900F081FB00F060FB9F
:1019F00001288ED0787900F07AFB00F059FB01289D
:101A000087D0B87900F073FB00F052FB01283FF457
:101A100080AFF87900F06BFB00F04AFB01283FF43F
:101A200078AF00F016FB082000F0CBFB012071E737
:101A3000BDE8F28FF8B506460C46154600F0F5FAFB
:101A4000300A00F00700400040F0A00000F04FFB1B
:101A500000F02EFB01280FD0F0B200F048FB00F0A0
:101A600027FB012808D000F0E0FAA12000F03FFB9E
:101A700000F01EFB012801D10020F2BD6E1E012ED8
:101A800008DB274600F057FB07F8010B00F0ECFAE3
:101A9000761EF7D100F04FFB291901F8010C00F078
:101AA000F8FA00F0D6FA0120F2BD70B515000C4628
:101AB0000AD0C600F6B206222146B0B2FFF71BFFDD
:101AC0000836A41D6D1EF6D170BD70B515000C460C
:101AD0000AD0C600F6B206222146B0B2FFF7AAFF2E
:101AE0000836A41D6D1EF6D170BD2DE9F0410446E7
:101AF000002504F108064FEAC50808F548700522DC
:101B0000314680B2FFF7F7FE00F08FFA08F55C77F8
:101B10003804000E00F00700400040F0A00000F084
:101B2000E6FA00F0C5FA012806F1320816D0F8B23C
:101B300000F0DDFA00F0BCFA01280FD0052718F8F4
:101B4000010B00F0D4FA00F0B3FA012806D07F1E92
:101B5000F5D100F07EFA082000F033FB6D1C761DF5
:101B60000A2DC8DB012204F16C014FF47070FFF7FD
:101B7000C2FE012204F16D014FF47270FFF7BBFE4B
:101B8000042221464FF47470FFF7B5FE211DBDE815
:101B9000F04104224FF47570ADE6F0B59DB00446F7
:101BA000002502AEEF0007F548700522314680B2ED
:101BB000FFF740FF07F55C70052206F1320180B2A5
:101BC000FFF738FF6D1C761D0A2DEBDB01221BA9E8
:101BD0004FF47070FFF72EFF01220DF16D014FF4ED
:101BE0007270FFF727FF042269464FF47470FFF705
:101BF00021FF042201A94FF47570FFF71BFF204657
:101C00006946702200F0A4F81DB0F0BD01B50122B4
:101C100069464FF47670FFF76EFE01BD80B5012274
:101C200069464FF476700AE001B5012269464FF427
:101C30007870F0E780B5012269464FF47870FFF7BD
:101C4000F9FE9DF8000002BD01B5012269464FF47E
:101C50007A70E0E780B5012269464FF47A70EEE7CA
:101C600001B5012269464FF47C70D4E780B50122AA
:101C700069464FF47C70E2E701462C224FF4806005
:101C800039E610B58CB004462C2269464FF48060CA
:101C9000FFF7D0FE204669462C2200F049F80CB030
:101CA00010BD01B5012269464FF4C860B3E780B5A5
:101CB000012269464FF4C860C1E7F0B40168446886
:101CC0008368091801EB5402E40748BF4B440C3009
:101CD00091422BD011F8014B14F0030504BF11F809
:101CE000015BED1C26090F2E07D111F8016B0F3691
:101CF00003E011F8017B03F8017B6D1EF9D1002E82
:101D0000E6D0A40811F8015B04F00304032C08BF1B
:101D100011F8014B05EB04241C1BB51CD8D014F89A
:101D2000016B03F8016B6D1EF9D1D1E7F0BC704770
:101D300062B38B0708D0521E11F8013B00F8013B3B
:101D400000F024808B07F6D1830740F0208000BF8D
:101D5000103A07D330B4B1E83810103AA0E8381080
:101D6000F9D230BC530724BFB1E80810A0E808102E
:101D700044BF51F8043B40F8043BD20724BF31F87C
:101D8000022B20F8022B44BF0B7803707047083AEF
:101D900007D3B1E80810083A40F8043B40F804CBF8
:101DA000F7D25307E4E7FEE762F30F2262F31F4224
:101DB00000B500BF130096469446103928BFA0E82E
:101DC0000C50FAD85FEA417C28BF0CC048BF40F8ED
:101DD000042BC90728BF20F8022B48BF00F8012BAD
:101DE00000BD000080B54FF44840ADF800006946E2
:101DF00010208DF8030002208DF802001F48FFF725
:101E0000C9FC4FF4F840ADF80000694610208DF889
:101E1000030002208DF802001948FFF7BBFC01BD4A
:101E2000174A00284FF40051104618BFFFF716BD9F
:101E3000FFF716BD124A00284FF48041104618BF24
:101E4000FFF70CBDFFF70CBD4FF4006104E04FF449
:101E5000006106E04FF480510948FFF7FFBC4FF4E2
:101E600080510748FFF7FCBC4FF400610348FFF7BF
:101E7000F5BC4FF400610148FFF7F2BC00180140C7
:101E8000000C014080B5C020ADF80000694610206C
:101E90008DF8030002208DF802002A48FFF77AFC33
:101EA0001020ADF800008DF80300694602208DF87F
:101EB00002002548FFF76EFC01BDF8B53D2840DA69
:101EC00084003C2808BFFF241E4D40212846FFF710
:101ED000C7FC402128460161C0461B4E10213046F8
:101EE0004161C0460827402128464161C04620067E
:101EF00004D5802128460161C04603E080212846A0
:101F00004161C046012000F053F94021284601619B
:101F1000C046012000F04CF964007F1EE3D110217F
:101F200030460161C046402128464161C0464021FB
:101F300028460161C0462846BDE8F4404021FFF72D
:101F40008FBCF1BD0008014000100140974A08B164
:101F5000082101E0082102E01046FFF77FBC10468F
:101F6000FFF77EBC914A08B11021F5E71021F6E792
:101F700080B51021ADF80010002814BF14200420F3
:101F80008DF80300694602208DF802008748FFF7AC
:101F900001FC01BD38B5854C042120464161C04695
:101FA0000120FFF7DFFF0020FFF7D0FF0F2000F038
:101FB000FFF80925082120460161C0460F2000F0E6
:101FC000F7F8082120464161C0460F2000F0F0F8E4
:101FD0006D1EEFD131BD10B582B00420ADF8000008
:101FE00010208DF8030002208DF8020069466F4C26
:101FF0002046FFF7CFFB1820ADF8000069461420FB
:102000008DF8030002208DF802002046FFF7C2FB86
:10201000042120460161C046102120460161C046CE
:10202000082120460161C04613BD80B50120FFF79D
:102030008DFF0120FFF796FF0F2000F0B9F8002078
:10204000FFF790FF0F2000F0B3F80020FFF77EFFAE
:102050001AE080B50020FFF785FF0120FFF776FF2B
:102060000F2000F0A5F80CE080B50020FFF77AFF04
:102070000120FFF76BFF0F2000F09AF80020FFF718
:1020800065FF0120FFF76EFFBDE802400F2000F062
:102090008FB880B50120FFF765FF0120FFF756FFDD
:1020A0000F2000F085F80020FFF750FF0020E9E73F
:1020B000012010B5FFF756FF0020FFF759FF012060
:1020C000FFF744FF0F2000F073F810213748FFF7A7
:1020D000BEFB002400B101240020FFF737FF0F20D2
:1020E00000F066F80120FFF743FF204610BD70B5F1
:1020F000044608252D4E200604D5102130460161E6
:10210000C04603E0102130464161C04608213046F8
:102110000161C0460F2000F04BF8082130464161B4
:10212000C0460F2000F044F864006D1EE3D1BDE806
:102130007040012016E770B582B00120FFF712FF52
:102140001020ADF8000004208DF8030002208DF867
:1021500002006946154D2846FFF71CFB082608219A
:1021600028460161C0460F2000F022F810212846C1
:10217000FFF76DFB640008B144F001040821284614
:102180004161C0460F2000F013F8761EE7D1102001
:10219000ADF80000694614208DF8030002208DF888
:1021A00002002846FFF7F6FAE0B276BD00180140BB
:1021B00030B1401E182100BF491E0029FBD1F7E7AE
:1021C00070474FF47A714843F2E7000000B583B0DE
:1021D000042003F034FA4FF4806003F030FA4FF437
:1021E000006003F02CFA02210320FFF763FB0A21B1
:1021F0000320FFF75FFB0B210020FFF75BFB0420B0
:10220000009000208DF804000C208DF805000120BE
:102210008DF80600684603F0D3F94FF48060009013
:1022200000208DF8040010208DF8050001208DF8A5
:102230000600684603F0C4F94FF4006000900020E7
:102240008DF8040010208DF8050001208DF806009F
:10225000684603F0B5F903B000BD80B54FF4A06047
:1022600003F0F6F908208DF8000000208DF8010039
:102270008DF8020001208DF80300684603F0EDF9A7
:1022800028208DF8000000208DF801008DF8020054
:1022900001208DF80300684603F0DFF901BD10B599
:1022A00082B00FF26D234FF4FA62C8214FF08040E4
:1022B00003F00CF94FF0804003F04DF91020ADF819
:1022C000000004208DF8030002208DF8020069460A
:1022D000DFF8D8462046FFF75DFA1021204641611D
:1022E000C0460120ADF80000694648208DF8030083
:1022F00002208DF802002046FFF74CFA40F67F409E
:10230000ADF80000694604208DF803004FF4C05476
:1023100002208DF80200DFF89806FFF73BFA042050
:102320008DF80300ADF8004002208DF802006946E8
:10233000DFF88006FFF72EFA04208DF80300ADF8D1
:10234000004002208DF802006946DFF86C06DFF8D5
:102350006C46FFF71FFA4FF44050ADF80000694695
:1023600004208DF8030002208DF802002046FFF7BC
:1023700011FAFFF72BFFFFF770FF4FF48051204653
:10238000FFF765FA401E8041DFF83416C00FC870B1
:1023900013BD38B5DFF814562846806880B2C006F1
:1023A00001D4012032BDDFF80806806880B28106C2
:1023B00001D4022032BD410601D4032032BDC10642
:1023C00001D4042032BDC10701D4052032BD8007ED
:1023D00001D4062032BDDFF8DC05806880B2C1047C
:1023E00001D4072032BD000501D4082032BD0121EF
:1023F0002846FFF72CFADFF8CC450028A07A0CD04D
:10240000C8B1A07908B10020A0716079401C60714A
:10241000C0B280B1002060710CE060B9607908B191
:1024200000206071A079401CA071C0B218B10020DA
:10243000A0710120A0722078401C20702821C0B219
:1024400090FBF1F101EB8102B0EBC2000BD1FFF781
:10245000F5F8DFF874550028286814BF40F4805060
:1024600040F4406028602078C82807D10020207000
:10247000DFF85455286840F080002860DFF83C05FC
:10248000806880B2C1040BD5A17809B10021A17088
:102490006178491C6170C9B279B1002161700BE0AB
:1024A000617809B100216170A178491CA170C9B29D
:1024B00019B10021A1700121E17180040BD52079AF
:1024C00008B100202071E078401CE070C0B278B103
:1024D0000020E0700BE0E07808B10020E070207987
:1024E000401C2071C0B218B1002020710120207260
:1024F00001206072FF2032BDDFF8D0140A8802800C
:1025000008797047DFF8C414002008717047000094
:1025100080B5FFF73EFFDFF8B4144A79FF2A03D1F4
:1025200048710020087010E08B7990420FD05A1C3F
:102530008A71D2B2082A1EDB00228A71FF2802BFEC
:102540000A78012A0A7148710020088101BD0889B2
:10255000401C08810BB100238B7180B2102803D17D
:10256000012008704A7001BDC82804D102200870FB
:102570004A700120087101BDDFF8502413791BB99E
:102580005070117001201071704770B5042003F075
:102590004BF8012840F0CC80DFF8340400780028A4
:1025A00040F0C1800821DFF80804DFF82854DFF884
:1025B0002844DFF82864FFF74AF90028687A00EB1E
:1025C00040014ED106EB810081682868884209D31A
:1025D000287A2960C00640D56420B1FBF0F0642160
:1025E000484339E02268510105D5DFF8D40300786B
:1025F000FEF71AF831E0297A0B0713D592B9DFF804
:10260000E003026842F206739A42A8BF036024DA2C
:10261000C90604D502F1640199421EDA00E0511C9A
:1026200001601AE00B0613D592B9DFF8B4034268D3
:1026300042F206739A42A8BF43600EDAC90604D577
:1026400002F16401994208DA00E0511C416004E0A3
:10265000C9064CBF6430401C28602068410152D438
:1026600056E0880081592868814209D3287A296078
:10267000C00645D56420B1FBF0F0642148433EE03C
:102680002268510105D5DFF838030078FEF746F8D7
:1026900036E0297A0B0716D5AAB9DFF84403DFF82C
:1026A000443302689A42B8BFDFF83C1309DBC9061D
:1026B00006D5A2F16401DFF83023914220DB00E06F
:1026C000511E01601CE00B0612D58AB9C448C54BE7
:1026D00042689A42B8BFC44908DBC90605D5A2F1D1
:1026E0006401C14A91420BDB00E0511E416007E0EA
:1026F000C90603D5642803D3643800E0401E28606F
:102700002068410104D5B049086840F0806009E0C4
:10271000AD490A68C00103D542F08070086002E04C
:1027200042F480700860BDE87040042002F087BF6A
:1027300070BD002044F62061884201DA401CF9E7B0
:10274000704770B54FF4806002F06EFF012840F0D2
:102750008380A14C206840017AD4FEF76AFF0028EC
:1027600076D1934E4FF480613046FFF770F89F4D5D
:1027700068B94FF400613046FFF769F8002807BFD9
:102780000120A8700120E870FFF7D3FF60E0A8786F
:1027900018B34FF400613046FFF759F801281CD1F7
:1027A0000020A8702068B0F1007F06D19048018811
:1027B0003C29B4BF491C3C2124E0C00106D5854812
:1027C000417A0929B4BF491C002129E089480178D0
:1027D0003C29B4BF491C3C2134E0E878002837D0BC
:1027E0004FF400613046FFF732F8002830D1E8702E
:1027F0002068B0F1007F0BD17D4801880529B4BF66
:102800000421491E01807048016841F000711EE0FA
:10281000C00113D56F48417A00290CBF0921491E18
:102820004172427A6D4902EB420301EB8301496830
:1028300001606548016841F0807108E06D480178E9
:1028400009B1491E01706048016841F00201016050
:102850004FF4806002F0F3FE4FF4006002F0E4FEFB
:10286000012840F0A180FEF7E4FE002840F09680A9
:10287000594C2068400105D45648007A242108426A
:1028800000F08C804C4E4FF400613046FEF7DFFFC5
:10289000564D68B94FF480513046FEF7D8FF0028F6
:1028A00007BF0120287001206870FFF742FF75E024
:1028B000287848B34FF480513046FEF7C8FF01280E
:1028C00022D1002028702168B1F1806F06D13C48E8
:1028D00001781229B4BF491C122128E0B1F1807F90
:1028E0003C4802D0017A4A0706D5817A6329ACBFF9
:1028F0006321491C81722BE089064FD5417A092951
:10290000B4BF491C002140E06878002846D04FF44D
:1029100080513046FEF79BFF00283FD16870216848
:10292000B1F1806F09D12648017809B1491E0170C3
:102930002548016841F080612FE0B1F1807F254892
:1029400002D0017A4A0719D5817A09B1491E8172EC
:10295000FEF7D4FD1C4822680168B2F1807F05D1E2
:1029600041F0807141F00101016003E040F2011289
:1029700011430160016841F020010EE089060DD588
:10298000417A00290CBF0921491E4172FEF77DFDE5
:102990000D48016840F2211211430160BDE870400A
:1029A0004FF4006002F04BBE70BD0000000C01400F
:1029B00000140140001001400008014000180140CF
:1029C000A026002023270020082600201C0100202C
:1029D000F4250020D82500200C260020000000202F
:1029E00068250020FBD8FFFFFAD8FFFF482700200A
:1029F00004260020F025002010B502F067FE00201C
:102A000002F04DFF122002F08BFF002002F047FF82
:102A1000912002F04BFF3F2002F071FF002002F0F6
:102A20001DFF002002F016FF142002F007FF002017
:102A300002F04DFF012002F02EFFFD21A02002F048
:102A400039FFEF2002F053FFFF2002F054FF00F0A7
:102A50005FFCE22002F026FF202002F054FF1F203E
:102A600002F03DFF082002F036FF072002F03BFF96
:102A7000022002F0FCFE00220021012002F0FAFEFA
:102A8000002000F017F80821002001F085F9DFF898
:102A9000E84222461C21002000F01EFA04F15802F0
:102AA0001C210D2000F018FA00F00EBA00F011BA47
:102AB00000F00CBA70B504467721002002F09AFEAF
:102AC0007F21002002F09BFE02F0A6FE802540261A
:102AD000204602F05EFE204602F05BFE761EF7D135
:102AE0006D1EF4D170BD2DE9F64F8046CFB0104673
:102AF00002F01EFFC0B200EB40025100491EC9B2F5
:102B0000C91D8A1001EB52714905090E019103AAF2
:102B1000C9008908491EC9B202910723DFF8DC17F2
:102B20004FF001094FF0000A00264FF0080CD6467E
:102B3000167009E0BCF1010F06DA0EF1010E002457
:102B40000EF802404FF0080C86423CDA0CEB0A0407
:102B5000671FCAF10504A445D8BF6446509D755D42
:102B6000C5EBC5056D18012F15F8E05CA8BFBD4089
:102B700003DA002F44BF7F42FD401EF80270009729
:102B8000A24409FA04F7A7F1010BACEB04070BFA16
:102B900007F72F40009D3D430EF80250BAF1050F94
:102BA000ACEB040CC6DB761CBCF1010F4FF0000A45
:102BB000A8BFACF1010CBDDA0EF1010E4FF0070C0D
:102BC0000EF802A0C0E72B32491C5B1EAAD1029866
:102BD000404400F11C0108F11C00C9B2C0B202F06F
:102BE00009FE9DF83C01C11DC9B202F008FE02F0C9
:102BF00013FE0DF10C084FF00709019801283CDB8A
:102C00004646824696F800B002AC6D4602271BF09D
:102C1000C0000AD0402807D0802803D0C02808D19F
:102C2000FF2002E0F02000E00F2020701420FFF7CA
:102C3000BFFA4FEA8B0B1BF0C0000AD0402807D028
:102C4000802803D0C02808D1FF2002E0F02000E057
:102C50000F2028701420FFF7ABFA14F8010B02F0D4
:102C600098FD15F8010B02F094FD7F1E4FEA8B0BC7
:102C7000CDD1761CBAF1010AC4D1B9F1010908F12C
:102C80002B08BAD151B0BDE8F08F30B5DFF87036FF
:102C9000DFF8704683B01B7A1B074CBF54235223C6
:102CA0008DF8003020238DF80130DFF85836B2FB64
:102CB000F3F304FB1323DFF85046B3FBF4F4E5B25F
:102CC000002D0CBF202430348DF80240DFF8385638
:102CD000DFF83446B2FBF4F405FB1424DFF82C567D
:102CE000B4FBF5F430348DF803402E248DF8044005
:102CF0002C46B2FBF4F405FB142442F21075B4FB2D
:102D0000F5F430348DF805402C46B2FBF4F405FBA5
:102D100014244FF47A75B4FBF5F430348DF8064082
:102D20002C46B2FBF4F405FB14246425B4FBF5F443
:102D300030348DF807402E248DF808406424B2FB0F
:102D4000F4F405FB14240A25B4FBF5F430348DF8B3
:102D500009400A24B2FBF4F404EB8405A2EB45021B
:102D600030328DF80A2000228DF80B206A46FFF7DA
:102D7000BAFE03B030BD00002801002070B584B059
:102D800004460D46164668460FF268010922FEF712
:102D9000CFFF4FF47A7096FBF0F04FF47A7101FB9D
:102DA0001060642190FBF1F030308DF803006A462A
:102DB000642096FBF0F001FB10600A2190FBF1F01B
:102DC00030308DF804002E208DF805000A2096FB87
:102DD000F0F000EB8001A6EB410030308DF80600EA
:102DE000294656208DF8070000208DF8080000F0D5
:102DF0006FBC000044433A000000000000000000E7
:102E00007CB504460D46164668460FF204010AE0FA
:102E100057504D3A000000007CB504460D4616465A
:102E200068460FF248010722FEF782FF642096FBF6
:102E3000F0F0642101FB10600A2190FBF1F03030CA
:102E40008DF804006A460A2096FBF0F000EB800142
:102E5000A6EB410030308DF80500294600208DF8A2
:102E600006002046FFF73FFE73BD0000564F4C3A68
:102E7000000000007CB504460D46164668460FF279
:102E800040010622FEF754FF642096FBF0F0642117
:102E900001FB10600A2190FBF1F030308DF8030047
:102EA0006A460A2096FBF0F000EB8001A6EB410099
:102EB00030308DF80400294600208DF80500D0E759
:102EC00043483A0000000000BDE81040002002F036
:102ED000E6BC012002F0E3BC38B50C4600F12B0142
:102EE0001C301546C9B2C0B202F084FC04F10B01DB
:102EF000C9B2204602F083FC02F08EFC582415F87B
:102F0000010B00F03BFA641EF9D131BD2DE9F84305
:102F1000DFF83069DFF83089044630781F46A04278
:102F200008BF002F0D46914621D00A2C0BDB6420F0
:102F300094FBF0F0642101FB10400A2190FBF1F0BA
:102F400008EB801201E008F530720321242000F024
:102F500005FF0A2094FBF0F000EB8001A4EB410098
:102F600008EB801234700321282000F0CBFE70881B
:102F7000A84208BF002F2DD04FF47A7095FBF0F0D7
:102F80004FF47A7101FB1050642190FBF1F008EBD3
:102F90008012758003212C2000F0E0FE642095FB58
:102FA000F0F0642101FB10500A2190FBF1F008EBD6
:102FB00080120321302000F0D1FE0A2095FBF0F0B2
:102FC00000EB8001A5EB410008EB801203213420C7
:102FD00000F098FE7078484508BF002F1FD064208D
:102FE00099FBF0F0642101FB10900A2190FBF1F0B5
:102FF00008EB801286F801900321382000F0AEFE25
:103000000A2099FBF0F000EB8001A9EB410008EBEE
:103010008012BDE8F84303213C2000F09FBEBDE8CC
:10302000F18330B40B46B94CB64D6421B0FBF1F1DD
:10303000642202FB1102B549B0FBF1F104FB11015E
:103040006424B1FBF4F1AF4CB0FBF4F405FB1400C5
:10305000AE4CB0FBF4F030BCD2B289B2C0B255E78E
:103060000821002000F098BE10B57FE010B50C4696
:103070001C30C1B2C0B202F0BDFBA11DC9B22046D6
:1030800002F0BDFB02F0C8FB06240F2002F081FB1A
:10309000FF2002F07EFB641EF7D110BD0246232103
:1030A0003DE0024623212420FFF7E4BE02463921F9
:1030B0000020FFF7B1BE002814BF0FF210020FF27C
:1030C000140239210C20FFF70EBD00004C4F434B7A
:1030D00000000000202020200000000002463921CE
:1030E0001E20FFF700BD024639212A20FFF788BEC7
:1030F000DFF8182939212A20FFF7F5BC02463921CB
:103100003420FFF73BBE024623212E20FFF7EBBC05
:10311000024623213B20FFF7E6BC02462F21242054
:10312000FFF7E1BC02462F212F20FFF7AEBD10B5FF
:103130000FF2180184B01CC968462F211CC06A46D2
:103140002F20FFF7D0FC04B010BD0000202020206D
:103150002020202020202000024639211820FFF7BF
:10316000C2BC024623213620FFF7BDBCDFF8284948
:1031700022461C210020FFF7AFFE04F15802BDE8F3
:1031800010401C210D20A7E638B5DFF810090021FA
:10319000017041708170002404F11C01C9B208461D
:1031A00002F028FB1B21152002F029FB02F034FB62
:1031B0000625002002F0EDFA002002F0EAFA6D1E6A
:1031C000F7D1641C1A2CE7DB31BDF8B504461A2C84
:1031D0002BDADFF8C8582E78B4421AD2A6B106F11D
:1031E0001C00C1B2C0B202F005FB1B21152002F089
:1031F00006FB02F011FB0627002002F0CAFA0020AD
:1032000002F0C7FA7F1EF7D1761EF6B2B4420BD297
:10321000E4E7A64208D21EB115213046FFF726FF8B
:10322000761CF6B2B442F6D22C70F1BDF8B5044665
:103230000A2C2CDADFF864586E78B4421AD2A6B1A0
:1032400006F11C00C1B2C0B202F0D4FA1B21152055
:1032500002F0D5FA02F0E0FA0627002002F099FA0F
:10326000002002F096FA7F1EF7D1761EF6B2B44225
:103270000CD2E4E72878A04208D21EB115213046CE
:10328000FFF7F4FE761CF6B2B442F6D26C70F1BDD4
:10329000F8B504460E2C2EDADFF80068B778BC4289
:1032A0001AD2AFB107F10E001C30C1B2C0B202F0A9
:1032B000A1FA1B21152002F0A2FA02F0ADFA0625B0
:1032C000002002F066FA002002F063FA6D1EF7D1CA
:1032D0007F1EBC420EDAE4E7A7420BD208E02FB112
:1032E00007F10E001521C0B2FFF7C0FE7F1CFFB230
:1032F000BC42F4DAB470F1BD00000000540B0020B1
:10330000D82500208096980040420F00A08601003A
:1033100080B5B82002F02FFA0C2002F03AFA1820FB
:1033200002F037FA242002F034FA302002F031FAA9
:103330003C2002F02EFA482002F02BFA542002F032
:1033400028FA602002F025FA6C2002F022FA782098
:1033500002F01FFA842002F01CFA902002F019FA01
:103360009C2002F016FAA82002F013FAB42002F012
:1033700010FABDE80240002002F0FDB92DE9FC4141
:10338000804601AC6D460226FF2718F0C00006D02B
:10339000402806D0802807D0C02808D00BE0207035
:1033A00006E00F20207003E0F020207000E027707E
:1033B0001420FEF7FDFE4FEA880818F0C00006D082
:1033C000402806D0802807D0C02808D00BE02870FD
:1033D00006E00F20287003E0F020287000E02F7036
:1033E0001420FEF7E5FE14F8010B02F0D2F915F8EF
:1033F000010B02F0CEF9761E4FEA8808C5D1BDE870
:10340000F3812DE9F041044616460D46304602F0A0
:103410008FFAC7B2012F0EDBDFF8B08916F8010B67
:1034200008EB0010A0F500722946E0B200F050FC55
:10343000A41C7F1EF2D1BDE8F0812DE9FC47DFF826
:1034400018790B9CDFF884890646387892465045F7
:1034500008BF002C89461D4634D0BAF10A0F0EDB96
:1034600064209AFBF0F0642101FB10A00A2190FB7C
:10347000F1F008EB001000F58072494604E00A28DC
:1034800005DBFF2803D04246304600F021FC0A202D
:103490009AFBF0F000EB8001AAEB410008EB001072
:1034A000B61C00F5807287F800A04946F0B200F023
:1034B0000FFCB61C08F1E0024946F0B200F008FC2F
:1034C000B61C00E0B61D7888A84208BF002C3ED08C
:1034D0004FF47A7095FBF0F04FF47A7101FB1050C5
:1034E000642190FBF1F008EB001000F580727D8004
:1034F0004946F0B200F0ECFB642095FBF0F064214B
:1035000001FB10500A2190FBF1F008EB0010B61CF3
:1035100000F580724946F0B200F0DAFB0A2095FB14
:10352000F0F000EB8001A5EB410008EB0010B61CA9
:1035300000F580724946F0B200F0CAFBB51C08F1F4
:10354000E0024946E8B200F0C3FBAE1C00E00836DA
:103550000A9D7878A84208BF002C22D0642095FBF1
:10356000F0F0642101FB10500A2190FBF1F008EB10
:10357000001000F580727D704946F0B200F0A8FBA3
:1035800002B00A2095FBF0F000EB8001A5EB4100B2
:10359000494608EB001000F58072B01CBDE8F0470A
:1035A00002E0BDE8F3870000C0B200F091BBF0B5C7
:1035B0000FF65C0485B0B4E8E0106B4642F210747C
:1035C000A3E8E01042F21073B2FBF3F304FB132301
:1035D0004FF47A74B3FBF4F330338DF8093023469B
:1035E000B2FBF3F304FB13236424B3FBF4F3303393
:1035F0008DF80A306423B2FBF3F304FB13230A248F
:10360000B3FBF4F330338DF80B300A23B2FBF3F342
:1036100003EB8304A2EB440230328DF80C204822E5
:103620008DF80D207A228DF80E206A46FFF75BFA9E
:1036300005B0F0BDF0B50FF2E87483B0E0CC6B4696
:103640006424E0C3642392FBF3F304FB13230A24F2
:1036500093FBF4F330338DF809300A2392FBF3F334
:1036600003EB8304A2EB440230328DF80A200022DF
:103670008DF80B206A46FFF736FA03B0F0BD70B53F
:1036800084B004460D46164668460FF2A0710D221E
:10369000FEF74EFB642096FBF0F0642101FB106006
:1036A0000A2190FBF1F030308DF809006A460A20BB
:1036B00096FBF0F000EB8001A6EB410030308DF876
:1036C0000A00294653208DF80B0000208DF80C00CD
:1036D0002046FFF708FA04B070BD2DE9F84F0A9CA8
:1036E00005468846164699461CB10FF25072FFF700
:1036F00088FE0A350027DFF8F0A6DFF8D0B6B94516
:1037000000D054B1307810F80A000BEB0010A0F58F
:1037100000724146E8B200F0DBFAAD1C7F1C761C5B
:103720000A2FECDBBDE8F18FF0B50FF2187489B009
:10373000B4E8E01004AB0FF21C74A3E8E010B4E8A6
:10374000E0106B46002AA3E8E0100CBF04AA6A460A
:10375000FFF7C9F909B0F0BD70B586B004460D4653
:10376000164668460FF20C711322FEF7E1FADFF8F5
:103770007C06DFF87816B6FBF0F001FB1060DFF88E
:103780005816B0FBF1F030308DF808006A46084654
:10379000B6FBF0F001FB1060DFF84016B0FBF1F073
:1037A00030308DF809002E208DF80A000846B6FB4F
:1037B000F0F001FB1060DFF82816B0FBF1F03030BC
:1037C0008DF80B000846B6FBF0F001FB106042F2EA
:1037D0001071B0FBF1F030308DF80C000846B6FBEC
:1037E000F0F001FB10604FF47A71B0FBF1F0303073
:1037F0008DF80D002E208DF80E000846B6FBF0F077
:1038000001FB10606421B0FBF1F030308DF80F0047
:103810006420B6FBF0F001FB10600A21B0FBF1F070
:1038200030308DF810000A20B6FBF0F000EB80017C
:10383000A6EB410030308DF81100294600208DF8AC
:1038400012006CE0801200209407002070B586B052
:1038500004460D46164668460FF22C611222FEF70A
:1038600067FADFF87405DFF87015B6FBF0F001FBBE
:103870001060DFF86815B0FBF1F030308DF808000B
:103880006A462E208DF809000846B6FBF0F001FBD1
:103890001060DFF84C15B0FBF1F030308DF80A0005
:1038A0000846B6FBF0F001FB106042F21071B0FB6D
:1038B000F1F030308DF80B000846B6FBF0F001FB5C
:1038C00010604FF47A71B0FBF1F030308DF80C00DD
:1038D0002E208DF80D000846B6FBF0F001FB1060BD
:1038E0006421B0FBF1F030308DF80E006420B6FB9F
:1038F000F0F001FB10600A21B0FBF1F030308DF8E0
:103900000F000A20B6FBF0F000EB8001A6EB4100AF
:1039100030308DF81000294600208DF81100204627
:10392000FFF7E1F806B070BD70B584B004460D46EF
:10393000164668460FF264510B22FEF7F9F964202F
:1039400096FBF0F0642101FB10600A2190FBF1F07E
:1039500030308DF808006A460A2096FBF0F000EB44
:103960008001A6EB410030308DF809002946002087
:103970008DF80A00ACE670B584B004460D461646D4
:1039800068460FF224510E22FEF7D2F9002E03D41E
:103990002B218DF8081003E02D218DF808107642B8
:1039A00036B242F2107196FBF1F142F2107202FB54
:1039B00011614FF47A7291FBF2F130318DF80910F8
:1039C0006420114696FBF1F102FB1161642291FB28
:1039D000F2F130318DF80A1096FBF0F002FB106026
:1039E0000A2190FBF1F030308DF80B006A460A2076
:1039F00096FBF0F000EB8001A6EB410030308DF833
:103A00000C00294600208DF80D0061E6083E0008F4
:103A100058B5DFF8DC630446307805280FDAC000BB
:103A20000C30C1B271A20320FFF75DF8052C347091
:103A30001BDAE0000C30C1B2A4A203201CE0092C68
:103A400005DAC0001C38C1B268A21E20ECE7132CB6
:103A500001DB347051BD4000001FDFF870232821C6
:103A6000C0B200F035F934700CE0092C08DAE0003F
:103A70001C38C1B295A21E20BDE85840FFF733B8EC
:103A8000132C07DA6000BDE85840001FDFF86423FC
:103A9000282189E551BD0000280100204C27002085
:103AA000F0B504460027092C85B0DFF84C53DFF849
:103AB0004C6307DA3078092804DB0020FEF7FAFFB0
:103AC000012700E094B968460FF298310F22FEF703
:103AD0002FF9687830308DF80D006A4600208DF897
:103AE0000E000C210520FEF7FEFF14B1012C00D0C2
:103AF0002FB1AA7814210520FFF7C1FD14B1022CC3
:103B000000D087B12A8A1C210520FFF750FDA4B1FF
:103B100087B9288A00F0C2FC00F092FC00F0D9FCC2
:103B2000FEF792F906E03078022803D100F0D8FCC5
:103B3000FEF78DF9032C00D02FB1EA78242105205F
:103B4000FFF7F2FD14B1042C00D02FB12A792C21FB
:103B50000520FFF76FFD14B1052C00D02FB16A6965
:103B60000C212020FFF772FE14B1062C00D06FB19B
:103B7000EA7B14212020FFF7D7FE87B97CB100F043
:103B80005FFC00F0A6FCFEF75FF906E0307806283F
:103B900003D100F0A5FCFEF75AF9072C05D1AA695C
:103BA0001C212020FFF7D8FD14B1082C00D02FB124
:103BB000B5F92A2024212020FFF7DDFE092C12DB95
:103BC00030780928A4F1080704DA0020FEF772FF14
:103BD000012000E000200090FBB205F12002182136
:103BE0000420FFF77AFD347005B0F0BD200000001E
:103BF000024618213020FFF704BC0FF2BC2201E07E
:103C00000FF2042230210A20FEF76DBF2DE9F043A8
:103C1000884664211546642690FBF1F106FB1101EC
:103C20000A2291FBF2F70A2190FBF1F101EB8102EC
:103C300083B0A0EB420425B165A218210820FFF74C
:103C4000E0FBDFF88891FFB209EB071000F5807206
:103C500018210C2000F03CF8E4B209EB041000F548
:103C6000807218210E2000F033F825B159A21821D6
:103C70001020FFF7C6FB6420B8FBF0F006FB1080B5
:103C8000C0B20090019556485549B8FBF0F001FBD1
:103C900010805149B0FBF6F34F48B8FBF0F001FB40
:103CA00010804F49B0FBF1F29BB2D2B21821122022
:103CB000FFF7C3FB3DB103B0BDE8F04349A21821B3
:103CC0002420FFF79EBB03B0BDE8F0833E00000058
:103CD00038B50C4600F11D011C301546C9B2C0B202
:103CE00001F088FD04F10F01C9B2204601F087FD03
:103CF00001F092FD102415F8010BFFF73FFB641E45
:103D0000F9D131BD2DE9F0410C4600F11F011C3005
:103D10001546C9B2C0B201F06DFD04F11F01C9B270
:103D2000204601F06CFD01F077FD0024344E202781
:103D30004FF002082878312C12BF332C3178084319
:103D4000FFF71CFB761C6D1C641CB8F10108F1D157
:103D50007F1EEDD1BDE8F0818412002038B50C46FD
:103D600000F11F011C301546C9B2C0B201F042FD7E
:103D700004F11F01C9B2204601F041FD01F04CFDE4
:103D8000202415F8010BFFF7F9FA15F8010BFFF7DE
:103D9000F5FA641EF5D131BD38B50C4600F1390194
:103DA0001C30C9B2C0B201F025FD04F10B01C9B24B
:103DB000204601F024FD01F02FFD124CA52514F83A
:103DC000010BFFF7DBFA6D1EF9D131BD14030020A2
:103DD000434800003A0000008096980040420F00DF
:103DE000A0860100485A00007800002000E1F50597
:103DF00052270020F4060020A02600205327002090
:103E0000140A0020D80100202020202020200000BB
:103E100043572046524551203A0000000000000060
:103E2000482D565357522D503A0000004357204416
:103E3000454C41593A0000000000000043414C4C01
:103E40003A0000004357204D4F4445203A41555415
:103E50004F2020004357204D4F4445203A4D414EBE
:103E600055414C004357204B455920203A4D4F4473
:103E7000450000004F5343205245463A00000000E1
:103E800000000000000000004357522042464F3A15
:103E90000000000000000000000000004357202048
:103EA000564F4C3A0000000043574E20204C4F3AEA
:103EB000000000000000000048492D535752000048
:103EC00010B5644C90B0204601F04EFD624805905C
:103ED00005A9624806900020079010200890002055
:103EE000099080200A904FF480700B904FF480600E
:103EF0000C9020200D904FF400500E9000200F9059
:103F0000204601F098FD0121204601F0AFFD544C00
:103F1000204601F0DFFD00200090694601208DF869
:103F200004008DF805004FF46020029000200390FB
:103F300004208DF81000204601F0F5FD0723012232
:103F40000A21204601F03AFE072302220B212046D7
:103F500001F034FE072303220C21204601F02EFE3F
:103F6000072304220D21204601F028FE01212046CE
:103F700001F000FE0121204601F0F3FD204601F092
:103F800002FE204601F004FE0028FAD1204601F08E
:103F900002FE204601F004FE0028FAD1012120464D
:103FA00001F003FE10B010BD80B501214FF4047084
:103FB000FDF7B9FB01210120FDF7ACFB0F20ADF8A7
:103FC0000000694600208DF803002648FDF7E2FB5B
:103FD000FFF776FF01BD2148018802895118028A46
:103FE000008B05E01D48418842895118428A408B68
:103FF00051184018411000EB91708003000C70477D
:104000001648818882895118828A808BF0E713488C
:10401000C188C2895118C28AC08BE9E710B5104C1B
:104020004FF40871204601F013FE012810D12046FC
:10403000C06C80B20C4908800C48016841F08001D6
:1040400001602046BDE810404FF4087101F00EBE3B
:1040500010BD0000080002404C240140CC26002086
:104060000024014000100140002600200826002006
:1040700080B54FF40040ADF80000694610208DF87F
:10408000030002208DF80200BE48FDF783FB4FF4C9
:104090004070ADF80000694610208DF80300022042
:1040A0008DF80200B848FDF775FB4FF46070ADF86D
:1040B0000000694610208DF8030002208DF80200F0
:1040C000B248FDF767FB4FF48070ADF80000694619
:1040D00010208DF8030002208DF80200AC48FDF797
:1040E00059FB01BD092800D9704710B5DFE810F071
:1040F0000A002B00410062007E009F00C000DC002F
:1041000002012301A04C4FF4007120460161C0461A
:104110004FF4807120460161C0464FF40041994838
:104120009A4C4161C0464FF4807199484161C04644
:104130004FF4007120464161C0464FF48071204623
:104140004161C046D0E0904C4FF4007120460161BF
:10415000C0464FF4807120464161C0464FF4004193
:1041600088480161C0464FF4807189484161C0466A
:10417000F6E0854C4FF4007120460161C0464FF4D3
:10418000807120464161C0464FF400417D487F4C1C
:104190004161C0464FF480717D480161C0464FF4D3
:1041A000007120464161C0464FF480712046416154
:1041B000C04699E0744C4FF4007120460161C0463E
:1041C0004FF4807120464161C0464FF400416D4874
:1041D0006E4C4161C0464FF480716D484161C046EC
:1041E0004FF4007120464161C04678E0664C4FF4C0
:1041F000007120464161C0464FF480712046016144
:10420000C0464FF400415F48604C0161C0464FF426
:1042100080715F484161C0464FF4007120464161A2
:10422000C0464FF4807120460161C046A3E0564C61
:104230004FF4007120464161C0464FF48071204622
:104240000161C0464FF400414E48504C4161C046A8
:104250004FF480714E484161C0464FF400712046D2
:104260000161C0464FF4807120464161C0463BE089
:10427000454C4FF4007120464161C0464FF48071B7
:1042800020464161C0464FF400413E483F4C016129
:10429000C0464FF480713E484161C0464FF4007102
:1042A00020460161C04661E0374C4FF40071204662
:1042B0004161C0464FF4807120464161C0464FF4D1
:1042C00000413048314C0161C0464FF480713048A4
:1042D0004161C0464FF4007120460161C0464FF471
:1042E000807120460161C0462046BDE81040802113
:1042F000FDF7B6BA244C4FF400712046FDF7B0FA32
:104300004FF4807120464161C0464FF400411D4882
:104310001E4C4161C0464FF480711D484161C0464A
:104320004FF4007120460161C0464FF48071204671
:104330000161C0461FE0144C4FF4007120464161FA
:10434000C0464FF4807120464161C0464FF40041A1
:104350000C484161C0464FF480710D480161C04670
:104360000A4C4FF4007120464161C0464FF4807101
:1043700020464161C0462046BDE810408021FDF73F
:104380006DBA10BD000C0140001401400010014046
:104390000008014030B589B00220ADF80000694640
:1043A00018208DF8030003208DF80200674D68483F
:1043B000684CFDF7EFF940F6CA002880204601F06E
:1043C00059FC01210220FDF7B7F90320ADF80400E4
:1043D00001A90020ADF80A00ADF806002888401EAB
:1043E000ADF80800204601F0A1FC04A801F0F2FCA1
:1043F0006020ADF81000298868684843642190FB6C
:10440000F1F0ADF8160004A90020ADF81800012065
:10441000ADF81200204601F0A6FC0821204601F06C
:104420000AFD0121204601F0FCFC0021204601F09C
:10443000E5FC01220121204601F0EBFC09B030BD72
:1044400070B4454B414CDB7B2488444844491022DE
:1044500051F8045B6543EE1105EB16652D125D43C3
:104460000A26B5FBF6F540F8045B51F8045B65439A
:10447000EE1105EB16652D125D430A26B5FBF6F528
:10448000521E40F8045BE3D170BC70473148018C88
:1044900041F480510184012101F0A6BC00B5324AEB
:1044A0002A494001B2FBF0F083B0400808800120A7
:1044B000ADF800000020ADF80600ADF80200088855
:1044C000401EADF804006946224801F02FFC03B0FD
:1044D00000BD2448417811B901214170D6E77047E9
:1044E00038B5204C1B4D002060700021284601F09B
:1044F0007BFC288C4EF6FF7108402884002128465A
:1045000001F0A1FC0F20207031BD10B5114C01212C
:10451000204601F09CFCB8B10121204601F0A1FC2D
:1045200010480178491C0A1101EBD2625211A1EB2B
:10453000421101700078094951F820102046BDE869
:10454000104089B201F07FBC10BD0000E4110020D2
:10455000000C014000040040A0260020E8240020B8
:10456000EC1100202E27002000A24A04DFF8AC1531
:104570008B784A780A2B08DA5B1C8B705318521C14
:10458000D2B218740A2AA8BF00224A707047DFF816
:104590008C150A788B78002043B1581E887050180B
:1045A000521C007CD2B20A2AA8BF00220A707047AF
:1045B000DFF86805018C491C0184704710B582B092
:1045C0004FF48060ADF80000694610208DF80300BC
:1045D00002208DF80200DFF84845DFF84805FDF7B6
:1045E000D9F8DFF83805DFF8403500210180817007
:1045F00002224FF47A71204600F068FF204600F056
:10460000B1FF204600F0A7FF13BD10B5DFF80C4541
:1046100000202081A0702080DFF81005008AFFF7BD
:104620003DFFFFF70DFF6FE038B5DFF8F044DFF82E
:104630000055208CE083DFF8FC04017821B1297853
:10464000D9BB0170FFF7DCFAA07A297880F001006D
:10465000014212D00120A072FCF7C4FFDFF8CC04A5
:10466000008AFFF736FF0020E08320844FF480614A
:10467000DFF8B0040161C0460CE008430AD1A07223
:10468000FFF72EFF4FF48061DFF898044161C046C8
:10469000E08B6084FCF7D2FF297808430DD1E08BD2
:1046A000618C401ADFF8841489786422514388426F
:1046B000A4BFBDE83140FCF779BF31BD10B5DFF8CC
:1046C0005C440020E072082020730320E071002089
:1046D000A0702080DFF85404008AFFF7DFFEFFF7A8
:1046E000AFFE0120207110BD10B5DFF8304400206E
:1046F000E0722073A0702080FFF7F2FE4FF480611B
:10470000DFF820044161C0460020207110BDF0B4E4
:10471000DFF808144B788C7801EB4000808C0204A1
:10472000120E012A18DB551E20FA05F7FF07E4B226
:1047300004D50A2C0DDA641C032603E00A2C08DADF
:10474000641C01265F185B1CDBB23E740A2BA8BFF9
:1047500000236D1E521EE7D18C704B70F0BC704769
:1047600038B5DFF8B843DFF8D013208CE0834FF47E
:104770009660098890FBF1F02067207B082810D80C
:10478000DFE800F005344654628F9A9A9A00DFF809
:10479000AC03017A01F0BF010172FFF7A5FFFCF73E
:1047A00005FF2079002840F0A180A078002800F0C3
:1047B000A680FFF7ECFE6071032020710020E083EB
:1047C0002084FCF73BFF08B1FCF70CFFE08B216F66
:1047D000627902FB0100A083FFF77BFE4FF480614A
:1047E000DFF840030161C04604209FE0E57A042D14
:1047F00071DA2279012A6ED10DB9132066E0012DFC
:1048000008BF042062D0022D14BF132012205DE0E7
:10481000E17A2079002904BF01280A2056D0022815
:10482000BFD100202073E07201207FE0E57A032DE4
:1048300051DA2279012A4ED10DB90F2046E0012D1F
:1048400014BF0420122041E0E57A0A2D0FDAB748A0
:10485000281890F82000252809D021790129A0D115
:10486000FFF755FF681CE072002020719DE720795A
:10487000022896D1E079401EE071C0B208B9032049
:104880002073012020710020E072E08BA16F88422C
:104890005ED3207B00285BD00020E08320840220B0
:1048A00044E0E57A022D16DA2179012913D1002D91
:1048B00014BF0420032009E0E57A022D0BDA2179E8
:1048C000012908D1002D0CBF02201020FFF71FFF87
:1048D000E07A401CC7E7217902297FF462AF401ECD
:1048E00020730020E07201202071CEE705282FD828
:1048F000DFE800F005042E030D1E62E7C5E7E08B3C
:10490000616F884224D3207B10B301200EE0E08B3E
:10491000A18B88421CD3216F0818A083FFF7E0FD0C
:104920004FF480617F484161C0460520207131BD50
:10493000E08BA18B88420BD3216F608401EB410295
:10494000C1EBC1010918A16712180021626721712A
:1049500031BDF8B5714C7849208CE0834FF49660F6
:10496000098890FBF1F0206775480178002937D05D
:1049700000216F4E734D017030782978277A637A61
:1049800000EA010282F0010C0CEA070722723B43A5
:104990006372684A13782BB1084340F0BE801070F0
:1049A000FFF72EF968480078052829D1607A38B3D6
:1049B00000206072A07901280CBF03200120A071A3
:1049C000A0780A280CDA401CA070A179607802193E
:1049D000401C11746070C0B20A28A4BF002060702F
:1049E000207900284CD1A078002800F08680FFF7BD
:1049F000CEFD6071032020710020E083208447E019
:104A000030782A7880F001010A4213D04748407874
:104A1000B0B9207900281CBFA079032800D078BB4A
:104A20000120A071A0780A28DADA401CA0700121C8
:104A30006078CCE7114314D13C4840780028E8D195
:104A4000207900281CBFA079012800D0C0B903201C
:104A5000A071A0780A28C3DA401CA07003216078F6
:104A6000B5E70242BCD020790028B9D1A07901284D
:104A70000CBF03200120A071A079FFF777FDB2E7FA
:104A80002079032804D038D3052826D014D334E065
:104A9000FCF7D4FD08B1FCF7A5FDE08B216F62792E
:104AA00002FB0100A083FFF714FD4FF480611D4855
:104AB0000161C04604200EE0E08BA18B88421CD32C
:104AC000216F0818A083FFF70BFD4FF48061154894
:104AD0004161C046052020710FE0E08BA18B884228
:104AE0000BD3216F608401EB4102C1EBC1010918B6
:104AF000A1671218002162672171FCF79FFD60B960
:104B0000E08B618C401A09498978642251438842BC
:104B1000A4BFBDE8F140FCF749BDF1BDA0000020F5
:104B20000008004000180140B1450008A026002000
:104B30002B270020FC25002004260020D82500205B
:104B40002C2700202A270020F825002010B582B04D
:104B50004FF46070ADF8000010208DF803000220C3
:104B60008DF802006946284C2046FCF713FE4FF4EE
:104B7000007120460161C0464FF4807120460161FA
:104B8000C0464FF4045000F005F842F2083000F03F
:104B900001F813BD70B504461B4D3BE070B50646E9
:104BA000084601F063F902460B460020174901F060
:104BB0006BF904460D46304601F058F922462B4663
:104BC00000F0ACFA01F08CFA04468004800C00F589
:104BD000804080B2FFF7DEFFA00BBDE8704000F51B
:104BE000804080B2D6E770B5094E044630680D4665
:104BF000844204BF7068A84204D02046FFF7CEFF6D
:104C00003460756070BD0000001801400000B041C4
:104C1000302700204FF4007128464161C04610261D
:104C2000200404D5802128460161C04603E080218C
:104C300028464161C0460520FDF7BAFA4FF480715D
:104C400028464161C0460520FDF7B2FA4FF4807155
:104C500028460161C0460520FDF7AAFA6400761EC9
:104C6000DED12846BDE870404FF40071FCF7F6BD78
:104C70002DE9F04107460C46DFF87C8182B01546ED
:104C80004FF4004140460161C0464FF48040ADF80A
:104C90000000694610208DF80300082602208DF8D8
:104CA00002004046FCF776FD4FF40041404641616A
:104CB000C04638064FF48041404602D50161C046E7
:104CC00001E04161C0464FF4004140460161C046E9
:104CD0007F00761EE8D160B201281EDB4019451E18
:104CE00064B22F7808264FF4004140464161C04627
:104CF00038064FF48041404602D50161C04601E0CC
:104D00004161C0464FF4004140460161C0467F000A
:104D1000761EE8D16D1E641EE3D1BDE8F38130B587
:104D200083B04FF46040ADF8000010208DF8030010
:104D300002208DF8020069462F4C304D2046FCF7CA
:104D400029FD4020ADF80000694610208DF80300D1
:104D500002208DF802002846FCF71CFD4FF40041AC
:104D600020460161C046402128460161C0464021DD
:104D700028464161C0464FF4005120464161C0467B
:104D80000120FDF71EFA2320019001AA0321012032
:104D9000FFF76EFF03B030BDF8B5194E044630681A
:104DA0000D46A04204BF7068A84224D01548124F97
:104DB00001190020AA00002301F0A8F900906A461A
:104DC00004210420FFF754FF4FF40051384641619D
:104DD000C0460220FDF7ECF94FF40051384601615E
:104DE000C0460820FDF7E4F94FF400513846416110
:104DF000C04634607560F1BD0014014000100140F0
:104E0000382700204054890010B58CB001210120C2
:104E1000FCF780FC4FF4A06000F01AFC0E208DF827
:104E2000000003208DF8010002208DF8020001200F
:104E30008DF80300684600F010FC8B4C204600F013
:104E400093FD8A48019001A989480290102003909F
:104E50006420049000200590802006900020079098
:104E6000089009904FF400500A9000200B902046C3
:104E700000F0E1FD01220221204600F000FE0CB00E
:104E800010BD70B5774888B0002101808170C01CCA
:104E9000202101F0D5F9FFF7B7FF764C764E20467A
:104EA00001F0D2F901214FF48040FCF73CFC0121D4
:104EB0000520FCF738FC00210520FCF746FC032008
:104EC0008DF802004FF4007518208DF80300ADF83E
:104ED000005069463046FCF75DFC04208DF8030065
:104EE00069464FF48060ADF800003046FCF752FC94
:104EF0004FF4E130049002A900200590ADF81800AD
:104F0000ADF81C000C20ADF81A0000200290ADF89E
:104F10000E00ADF80C50204601F022FA04A92046FC
:104F200001F0D6F94FF4A06000F092FB25208DF837
:104F3000040001208DF805008DF806008DF80700AB
:104F400001A800F08AFB6021204601F049FA012205
:104F500040F22551204601F019FA01228021204615
:104F600001F02CFA0121204601F006FA08B070BDCC
:104F7000B9B13C4A9378402B10DA92F801C003781B
:104F800094448CF8033053785B1C5370DBB2402B95
:104F9000A4BF0023537093785B1C9370401C491E80
:104FA000E8D170472F4880787047364800787047BE
:104FB0002C488178012900DA704730B42C4A847873
:104FC00000235CB105782B186D1CDB780570EDB201
:104FD000402DA4BF00250570641E8470491E02F890
:104FE000013BECD130BC704738B5044625491E4D15
:104FF000002008704FF4005000F049FD00212846C1
:1050000000F034FD6C602846BDE83440012100F01A
:105010002DBD10B5174C40F22551204601F0E1F9A5
:1050200080B1204601F0D8F9144C154A2178C0B25D
:105030003B2804D1104601F0FDFD002001E088541A
:10504000481C207010BD80B54FF4005000F01FFDCB
:105050000021054800F00AFD0A490120087001BD41
:10506000000000001C2600204400024004380140DB
:10507000602600200038014000080140542700202D
:10508000EC26002088120020002800BF0AD0B0FAC9
:1050900080F18840D1F19D01C905020672F10042FC
:1050A00041EB1020704700004FF0807C1CEB400F5C
:1050B00094BF1CEB410F05E040EA010C5FEA4C0C89
:1050C00001D28842704718BF814270475FF0FF0CE1
:1050D0001CEAD05114BF614506E0C110400721F021
:1050E000E04101F16051704779B900F000410002E0
:1050F0000AD0B0FA80FC00FA0CF001F16051A1EB8B
:105100000C5101EBD0214005704741020CBF40F427
:10511000E0016FF00001002070470000B0B581EAA7
:10512000030C0CF0004C40F2FF7515EA11541DBF42
:1051300015EA1357AC42AF4239E0E41923EA45536C
:1051400043F48013C90241F0004141EA505EC702B6
:105150001100A7FB020200284FF00000EEFB012027
:105160004FF00001E3FB072118BF42F00102401895
:1051700000214941E3FB0E01A4F580640F0302D234
:1051800052004041494154F101046CDD470872F17D
:10519000004250F1000051EB0451A1F580115CBFB9
:1051A00041EA0C01B0BD4CEA05510020B0BD05EA52
:1051B0001357AC4214BFAF4241E050EA410E1CBF4E
:1051C00052EA430E02E061460020B0BD24423C4456
:1051D0001BD15FEA070EF6D0090302BF014600208B
:1051E000AEF1140EB1FA81F7AEEB070401FA07FE37
:1051F0000C37C7F1200100FA07F7C8404EEA000E4D
:1052000023EA455343F48013A2E733F00043B3FA93
:1052100083F704BFB2FA82FE77440B3FE41BB7F179
:10522000200E2FBF02FA0EF3BB40C7F1200E22FA68
:105230000EFE38BF43EA0E03BA40641C82E750EA10
:10524000410E14BF52EA430E6FF000014FF40017F5
:1052500017EB430F8ABF194617EB410FB5E74CEA2E
:1052600005510020B0BDD4F10104B4F120070FDADC
:10527000C4F12007520828BF42F0010210FA07F5D6
:1052800001FA07F7E1BF2A43E0403843E1400FE06D
:10529000352C98DCC7F1200452EA400220FA07F2CC
:1052A00018BF42F0010231FA07F0A1400A43002181
:1052B00072F1004250F1000051EB0C01B0BD000052
:1052C000F0B44FF0004591EA030C44BF6B4002F08C
:1052D000FDB800BF841A71EB030603D2001BB14175
:1052E000121973414FF4001C1CEB410F34BF7CEBCF
:1052F000430443E00C0DA4EB1356352E50DC45EA75
:10530000C323DB0A45EAC121C912B6F120050DDD30
:1053100063FA05F6EB4086EA0305124218BF45F032
:105320000105C01851F100010CD213E062FA06F534
:10533000F2405540F3415A40B340F3405A40801880
:10534000594107D349085FEA30005FEA350528BFB5
:1053500045F0010501F58011420875F1004250F158
:10536000000041EB0451F0BC4FF4001C1CEB410F5A
:1053700038BF70470020090D090570471CEB410F2D
:1053800010D252EA43060BD0BCEB410F05D80C0DEE
:10539000AB43661E342EB5DD02E0AB4380185941A5
:1053A000F0BC7047F0BC70474FEAF17CBCF1E04CB8
:1053B0002CBFBCF5001F11E05FEA4C0C34BFBCF100
:1053C0007F5F2EE05FEA9C0C4FEA0C1C4FEA3C0C1E
:1053D000C10071F100414CEB50707047C90241EAC5
:1053E0005051C00218BF41F0010141F000414FEAA5
:1053F0006C50C0F10900212810D240EACC7CCCF1DD
:10540000200C11FA0CF070F10040CCF1200C21FAC4
:105410000CF00CF0004C40EB0C0070474FEACC70E5
:105420007047490011F5001F04D84FEACC10FF3037
:10543000C0057047C817704740000DD2010E7F3974
:105440000AD4D1F11F0104D4C00140F00040C8408B
:1054500070477FF0000070470020704780B54FF420
:10546000A06000F0F5F81C208DF8000003208DF8F6
:1054700001008DF8020001208DF80300684600F05D
:10548000ECF84FF4A06000F0E3F81E208DF8000067
:1054900000208DF8010001208DF802008DF8030036
:1054A000684600F0DAF84FF4A06000F0D1F81D2053
:1054B0008DF8000000208DF8010001208DF8020019
:1054C0008DF80300684600F0C8F801BDF0B583B060
:1054D00004460D4616461F46FFF7C0FFB4F1804F45
:1054E00006D101210120FCF727F93148076010E0BF
:1054F0003048844204D101210220FCF71DF908E064
:105500002D48844205D101210420FCF715F92848D3
:105510004760204600F0AEFB701EADF8040006FBAD
:1055200005F126480068B0FBF1F0401EADF8000020
:1055300069460020ADF80600ADF80200204600F0F4
:10554000F5FB0121204600F081FC0121204600F0FE
:1055500068FC03B0F0BD0122012100F05ABC01211A
:1055600000F042BC002100F03FBC80B501214FF0AB
:10557000804000F06CFC48B101214FF0804000F009
:1055800070FC0B480068BDE80240004701BD10B543
:10559000094C0121204600F05AFC40B1012120466F
:1055A00000F05FFC02484068BDE81040004710BDB5
:1055B00040270020000400400008004080780008D8
:1055C00030B401688279CB431F4932B30A4614686C
:1055D0002340136053680468A34353600379CC18D5
:1055E000236805682B43236093680468A343936092
:1055F000D3680468A343D36043790568102B08D1AE
:10560000916829439160D16800680843D06030BC3C
:105610007047CC182068284303E000790C182068F4
:105620001840206030BC7047074A13685269002157
:10563000034002421CBF002B01210846704700BFF7
:105640000249086070470000000401401404014052
:105650001949084319490860704770B40378C47841
:105660001A460121ECB1154B1B68447803F4E06342
:10567000C3F5E0631B0AC3F10405AC4085780F262F
:10568000DE4006EA050323430D4C1B011355007849
:1056900000F01F0291400B4A400942F8201070BCF4
:1056A000704703F01F0001FA00F00749520941F862
:1056B000220070BC704700000000FA050CED00E00D
:1056C00000E400E000E100E080E100E038B5802087
:1056D000ADF8000010208DF8030002208DF80200C4
:1056E0006946544C2046FCF755F84FF48070ADF8ED
:1056F0000000694610208DF80300C82502208DF8AF
:1057000002002046FCF746F84FF40070ADF80000A8
:10571000694610208DF8030002208DF80200204613
:10572000FCF738F80120ADF8000010208DF80300D8
:1057300002208DF8020069463F4C2046FCF72AF80B
:105740000220ADF80000694610208DF80300022009
:105750008DF802002046FCF71DF80121204641612A
:10576000C046C820FCF724FD6D1EFAD10121204659
:105770000161C04631BDF8B504462F4D02212846CF
:105780004161C0462B4E4FF4007130464161C04626
:105790000CE0F8B50446284D022128464161C04678
:1057A000244E4FF4007130460161C04608274FF483
:1057B000807130464161C046200604D580213046C4
:1057C0000161C04603E0802130464161C0464FF48C
:1057D000807130460161C04664007F1EE7D14FF4FE
:1057E000007130460161C0462846BDE8F440022100
:1057F000FCF734B838B504460D46152003E038B53B
:1058000004460D467520FFF7B6FF2046FFF7C1FF9F
:105810002846BDE83240BCE7F8B5074D02212846CE
:105820004161C046034E4FF4007130464161C046AD
:105830005C24BBE7000C01400018014010B5044691
:10584000A020FFF798FF2046FFF7A3FFBDE8104018
:1058500011209EE710B50446A12002E010B50446D1
:10586000A220FFF788FF2046BDE8104091E740F0F6
:10587000A40080E770B504460D46164644F0A80023
:10588000FFF779FF34B92846FFF783FF3046BDE8BC
:1058900070407EE770BD10B50446AB20E1E740F0F4
:1058A000AE0068E710B50446B120DAE710B504464B
:1058B000B320D6E738B504460D46B420FFF75BFFAA
:1058C00044F0A000FFF765FF45F00500A1E710B523
:1058D0000446B520C5E710B50446B620C1E710B5AB
:1058E0000446BB20BDE710B50446BE20B9E710B59D
:1058F0000446C120B5E710B50446C720B1E710B58E
:105900000446CA20ADE710B50446D120FFF733FFA7
:1059100044F08200FFF73DFFBDE81040202038E74B
:1059200010B50446FD20FFF726FF44F012009BE768
:1059300000F10103810704D010F8011B89B1810730
:10594000FAD10268B2F10131914311F0803F04BFF6
:1059500050F8042FF6E710F8011B11B110F8011BE5
:10596000FBE7C01A70470000016849084900016060
:105970000021016041608160C1604849884204D1D2
:105980004748016841F00F0153E04649884204D17D
:105990004348016841F0F0014BE04349884204D19B
:1059A0003F48016841F4706143E04049884204D1B6
:1059B0003B48016841F470413BE03D49884208BFE3
:1059C000374833D03B49884204D13548016841F417
:1059D00070012EE03849884204D13148016841F015
:1059E000706126E03549884204D13548016841F0AC
:1059F0000F011EE03349884204D13148016841F06B
:105A0000F00116E03049884204D12D48016841F484
:105A100070610EE02D49884204D12948016841F4A3
:105A2000704106E02A49884204D12548016841F4C2
:105A300070210160704702688B686FF30E121A4381
:105A40000B6A1A430B691A434B691A438B691A4351
:105A5000CB691A434B6A1A438B6A1A430260CA68BD
:105A600042600A6882604968C16070470029016825
:105A700012BF41F001014908490001607047002A46
:105A8000026814BF114322EA010101607047C1009E
:105A90004CBF0B49024908607047000008000240F3
:105AA000040002401C00024030000240440002405A
:105AB000580002406C00024080000240080402408E
:105AC000040402401C04024030040240440402402A
:105AD0005804024080B55949884208D101214FF449
