:020000040800F2
:1000000000040020E1B000085B3A00085B3A0008F9
:100010005B3A00085B3A00085B3A00080000000009
:100020000000000000000000000000005B3A000833
:100030005B3A0008000000005B3A00085B3A0008E9
:100040005B3A00085B3A00085B3A00085B3A00083C
:100050005B3A00085B3A00085B3A00085B3A00082C
:10006000FB6E00085B3A00085B3A00085B3A000848
:100070005B3A00085B3A0008338C00085B3A0008E2
:100080005B3A00085B3A0008457700085B3A0008D5
:100090005B3A00085B3A00085B3A00085B3A0008EC
:1000A0005B3A00085B3A00085B3A00085B3A0008DC
:1000B000978D0008133C0008B98D00085B3A0008D2
:1000C0005B3A00085B3A00085B3A00085B3A0008BC
:1000D0005B3A0008158C00085B3A00085B3A0008A0
:1000E000DF7100085B3A00085B3A00085B3A0008E1
:1000F0005B3A00085B3A00085B3A00085B3A00088C
:100100005B3A00085B3A00085B3A00085B3A00087B
:100110005B3A00085B3A00085B3A00085B3A00086B
:100120005B3A00085B3A00085B3A00085B3A00085B
:1001300080B503F089FA002003F0AEFB122003F033
:100140002BFC002003F0A8FB912003F0B6FB3F201E
:1001500003F00AFC002003F06FFB002003F062FBB9
:10016000142003F052FB002003F0C2FB012003F037
:1001700089FBFD21A02003F0AAFBEF2003F0E0FBA8
:10018000FF2003F0E7FB01F0AEFAE22003F08BFB67
:10019000202003F0F3FB1F2003F0BEFB082003F038
:1001A000B1FB072003F0C2FB022003F04FFB00224B
:1001B0000021012003F051FB002000F010F801F0B5
:1001C000CCF9002003F068FB01BD80B5012003F0ED
:1001D00063FB01BD80B5002003F05EFB01BD70B57F
:1001E00004007721002003F0EDFA7F21002003F0C6
:1001F000F8FA03F005FB00250CE02000C0B203F084
:10020000ABFA2000C0B203F0A7FA761CF6B2402E7B
:10021000F3DB6D1CEDB2802D01DA0026F6E770BD30
:10022000F0B591B00C000021F7E01033DFF8485C26
:10023000C9B24D5DDFF8406CDBB2072707FB0366F0
:10024000C9B28E5DF6B2760856EA45156E46C9B259
:1002500016EBC1067570DFF8245CDFF81C6CDBB2AE
:10026000072707FB0363C9B2CB5CB2FBF5F605FBBE
:100270001625DFF80C6CB5FBF6F50726DFF8F87BE2
:1002800006FB0575C9B24D1995F870506D0055EA19
:10029000C3136D46C9B215EBC105AB70DFF8E05B67
:1002A000DFF8D43BC9B2CB1893F86230B2FBF5F655
:1002B00005FB162542F21076B5FBF6F50726DFF8AA
:1002C000B87B06FB0575C9B24D1995F870506D00E5
:1002D00055EA03136D46C9B215EBC105EB7042F246
:1002E00010754FF47A73B2FBF5F605FB16254FF443
:1002F0007A76B5FBF6F50726DFF87C7B06FB0575FD
:10030000C9B24D1995F87050B2FBF3F603FB1623F2
:100310006426B3FBF6F30726DFF85C7B06FB03736A
:10032000C9B2CB1893F87030DBB2DB0853EAC503CF
:100330006D46C9B215EBC1052B714FF47A75642374
:10034000B2FBF5F605FB16256426B5FBF6F5072688
:10035000DFF8247B06FB0575C9B24D1995F870507E
:10036000DFF8146BC9B28E1996F8626056EA45152B
:10037000B2FBF3F603FB16230A26B3FBF6F30726BC
:10038000DFF8F47A06FB0373C9B2CB1893F8703028
:10039000DBB255EAD3036D46C9B215EBC1056B71EB
:1003A00064250A23B2FBF5F605FB16250A26B5FBE4
:1003B000F6F50726DFF8C07A06FB0575C9B24D19B8
:1003C00095F87050B2FBF3F603FB16230726DFF80F
:1003D000A87A06FB0373C9B2CB1893F87030DBB26E
:1003E0005B0853EA45136D46C9B215EBC105AB7105
:1003F0000A23B2FBF3F503FB15230725DFF8786A20
:1004000005FB0363C9B2CB1893F87030DB016D466E
:10041000C9B215EBC105EB71491CC9B2072921DA34
:10042000DFF8543AC9B2CB1893F86C31DFF8485A68
:10043000C9B24D5DC5F3C10555EAC3036D46C9B2E6
:1004400005F83130DFF83C3AB2FBF3F503FB152336
:10045000DFF8285AB3FBF5F3DBB2002B7FF4E5AEEF
:100460000023E3E610F12B01C9B21C30C0B203F047
:10047000A9F9E11DC9B22000C0B203F0B2F903F03E
:10048000BFF900240CE06846E4B210EBC400EDB202
:10049000285C01F05DF96D1CEDB2082DF3DB641CE6
:1004A000E4B2072C01DA0025F6E711B0F0BD30B553
:1004B00091B00C00002183E0DFF8BC29C9B28A5C4E
:1004C000DFF8B439C9B2CB5CC3F3C10353EAC2024B
:1004D0006B46C9B203F83120DFF89C29C9B28A5CA7
:1004E000DFF89439C9B2CB5CDBB25B0853EA421245
:1004F0006B46C9B213EBC1035A70DFF87C29C9B24D
:100500008A5CDFF87439C9B2CB5C5B0053EAC21273
:100510006B46C9B213EBC1039A70DFF85C29C9B20C
:100520008A5CDFF85439C9B2CB5C5B0053EA021233
:100530006B46C9B213EBC103DA70DFF83C29C9B2CC
:100540008A5CDFF83439C9B2CB5CDBB2DB0853EA32
:10055000C2026B46C9B213EBC1031A71DFF8182946
:10056000C9B28A5CDFF81039C9B2CB5C53EA4212D7
:10057000DFF80439C9B2CB5CDBB252EAD3026B4676
:10058000C9B213EBC1035A71DFF8EC28C9B28A5C17
:10059000DFF8E438C9B2CB5CDBB25B0853EA421245
:1005A0006B46C9B213EBC1039A71DFF8CC28C9B20C
:1005B0008A5CD2016B46C9B213EBC103DA71491CE4
:1005C000C9B20729FFF678AF10F12B01C9B21C3070
:1005D000C0B203F0F7F8E11DC9B22000C0B203F0C9
:1005E00000F903F00DF900240CE06846E4B210EBCA
:1005F000C400EDB2285C01F0ABF86D1CEDB2082D23
:10060000F3DB641CE4B2072C01DA0025F6E711B035
:1006100030BDF0B58BB00C000021B9E0DFF85838E0
:10062000C9B2CB1893F8FC30DFF84C58C9B24D1959
:1006300095F8F550C5F3C10555EAC3036D46C9B237
:10064000062606FB01552B70DFF82C38C9B2CB18F3
:1006500093F8F530DFF82058C9B24D1995F8B65027
:10066000EDB26D0855EA43136D46C9B2062606FB86
:1006700001556B7092B24FF47A7592B2642392FB7B
:10068000F5F605FB1625642695FBF6F50726DFF83B
:10069000E87706FB0575C9B24D1995F8705092FBC5
:1006A000F3F603FB16230A2693FBF6F30726DFF87F
:1006B000C87706FB0373C9B2CB1893F87030DBB26E
:1006C000DB0853EAC5036D46C9B2062606FB015591
:1006D000AB7092B2642592B20A2392FBF5F605FB49
:1006E00016250A2695FBF6F50726DFF88C7706FB1C
:1006F0000575C9B24D1995F87050DFF87C67C9B21D
:100700008E1996F8626056EA451592FBF3F603FBE4
:1007100016230726DFF8607706FB0373C9B2CB18F0
:1007200093F87030DBB255EAD3036D46C9B20626A2
:1007300006FB0155EB7092B20A2392FBF3F503FB23
:1007400015230725DFF8306705FB0363C9B2CB1813
:1007500093F87030DFF82057C9B24D1995F87A51E7
:10076000EDB2ED0855EA43136D46C9B2062606FB05
:1007700001552B71DFF80037C9B2CB1893F87A31E5
:100780005B016D46C9B2062606FB01556B71491C1B
:10079000C9B20729FFF642AF10F12701C9B21C30D8
:1007A000C0B203F00FF8E11DC9B22000C0B203F0DF
:1007B00018F803F025F800240DE06846E4B206219D
:1007C00001FB0400EDB2285C00F0C2FF6D1CEDB22D
:1007D000062DF2DB641CE4B2072C01DA0025F6E7F3
:1007E0000BB0F0BD2DE9F04186B004000D001600FD
:1007F000002041E0DFF88016C0B2411891F8811165
:10080000DFF87426C0B2821892F85021C2F3C102F8
:1008100052EAC1016A46C0B2032303FB00221170F1
:10082000DFF85416C0B2411891F85011DFF848268D
:10083000C0B2821892F83B21C2F3430252EA41113E
:100840006A46C0B2032303FB00225170DFF828166A
:10085000C0B2411891F83B11DFF81C26C0B28218D3
:1008600092F8B620520052EAC1116A46C0B2032380
:1008700003FB00229170401CC0B20728BADB14F1C0
:100880002101C9B214F11C00C0B202F09BFFE91DA6
:10089000C9B22800C0B202F0A4FF02F0B1FF0027E5
:1008A00012E06846FFB2032101FB07005FFA88F8F7
:1008B00018F8000000F04CFF18F101085FFA88F802
:1008C000B8F1030FEDDB7F1CFFB2072F02DA5FF0F8
:1008D0000008F3E700202FE0F6B2642196FBF1F266
:1008E00001FB12610A2291FBF2F10722DFF8883541
:1008F00002FB0131C0B2411891F8701049006A46FC
:10090000C0B2032303FB00221170F6B20A2196FB4A
:10091000F1F201FB12610722DFF85C3502FB0131C5
:10092000C0B2411891F87010C9006A46C0B20323E2
:1009300003FB00225170401CC0B20728CCDB14F12D
:100940002401C9B214F12100C0B202F03BFFE91D3D
:10095000C9B22800C0B202F044FF02F051FF0024E7
:100960000DE06846E4B2032101FB0400EDB2285C0F
:1009700000F0EEFE6D1CEDB2022DF2DB641CE4B261
:10098000072C01DA0025F6E706B0BDE8F081F0B5E6
:100990008BB005000E001700380003F043F8040088
:1009A000E4B2062000FB04F0401EC0B2092801DAC0
:1009B000082012E0C0B2112801DA10200DE0C0B208
:1009C000192801DA182008E0C0B2212801DA202015
:1009D00003E0C0B2292800DA2820002199E0DFF8DE
:1009E00098243B785FF0070C0CFB0322C9B28A18ED
:1009F00012F8E02CDFF8803497F801C05FF0070EA2
:100A00000EFB0C33C9B2CB1813F8E03CDBB2DB08A9
:100A100053EAC2026B46C9B25FF0060C0CFB01330D
:100A20001A70DFF854247B785FF0070C0CFB03226C
:100A3000C9B28A1812F8E02CDFF83C3497F802C0EB
:100A40005FF0070E0EFB0C33C9B2CB1813F8E03C75
:100A5000DBB25B0853EA42126B46C9B25FF0060C88
:100A60000CFB01335A70DFF81024BB785FF0070CE1
:100A70000CFB0322C9B28A1812F8E02CDFF8F83315
:100A800097F803C05FF0070E0EFB0C33C9B2CB180A
:100A900013F8E03C5B0053EAC2126B46C9B25FF048
:100AA000060C0CFB01339A70DFF8CC233B795FF026
:100AB000070C0CFB0322C9B28A1812F8E02CDFF8ED
:100AC000B83397F805C05FF0070E0EFB0C33C9B2C0
:100AD000CB1813F8E03CDBB2DB0853EAC2026B46EA
:100AE000C9B25FF0060C0CFB0133DA70E24A7B7985
:100AF0005FF0070C0CFB0322C9B28A1812F8E02C35
:100B000052016B46C9B25FF0060C0CFB01331A713F
:100B1000491CC9B2072980F27B81E4B2012C0CD0B8
:100B2000F6D3032C4FD01BD3052C00F0FF80C0F070
:100B30009D80062C3FF453AFEAE7CF4A3B785FF045
:100B4000070C0CFB0322C9B28A1812F8E02CD20061
:100B50006B46C9B25FF0060C0CFB01331A70D7E785
:100B6000C54A3B785FF0070C0CFB0322C9B28A1818
:100B700012F8E02CC04B97F801C05FF0070E0EFB97
:100B80000C33C9B2CB1813F8E03CC3F3C10353EAEA
:100B9000C2026B46C9B25FF0060C0CFB01331A703F
:100BA000B54A7B785FF0070C0CFB0322C9B28A18A8
:100BB00012F8E02C52016B46C9B25FF0060C0CFB38
:100BC00001335A70A4E7AC4A3B785FF0070C0CFB8A
:100BD0000322C9B28A1812F8E02CA74B97F801C07B
:100BE0005FF0070E0EFB0C33C9B2CB1813F8E03CD4
:100BF000C3F3C10353EAC2026B46C9B25FF0060CED
:100C00000CFB01331A709C4A7B785FF0070C0CFBDD
:100C10000322C9B28A1812F8E02C974B97F802C049
:100C20005FF0070E0EFB0C33C9B2CB1813F8E03C93
:100C3000C3F3430353EA42126B46C9B25FF0060C9A
:100C40000CFB01335A708C4ABB785FF0070C0CFB2D
:100C50000322C9B28A1812F8E02CD2016B46C9B23D
:100C60005FF0060C0CFB01339A7051E7824A3B7827
:100C70005FF0070C0CFB0322C9B28A1812F8E02CB3
:100C80007D4B97F801C05FF0070E0EFB0C33C9B225
:100C9000CB1813F8E03CDBB2DB0853EAC2026B4628
:100CA000C9B25FF0060C0CFB01331A70724A7B78F4
:100CB0005FF0070C0CFB0322C9B28A1812F8E02C73
:100CC0006D4B97F802C05FF0070E0EFB0C33C9B2F4
:100CD000CB1813F8E03CDBB25B0853EA42126B46D8
:100CE000C9B25FF0060C0CFB01335A70624ABB7844
:100CF0005FF0070C0CFB0322C9B28A1812F8E02C33
:100D00005D4B97F803C05FF0070E0EFB0C33C9B2C2
:100D1000CB1813F8E03C5B0053EAC2126B46C9B231
:100D20005FF0060C0CFB01339A70F1E6524A3B78F7
:100D30005FF0070C0CFB0322C9B28A1812F8E02CF2
:100D40004D4B97F801C05FF0070E0EFB0C33C9B294
:100D5000CB1813F8E03CDBB2DB0853EAC2026B4667
:100D6000C9B25FF0060C0CFB01331A70424A7B7863
:100D70005FF0070C0CFB0322C9B28A1812F8E02CB2
:100D80003D4B97F802C05FF0070E0EFB0C33C9B263
:100D9000CB1813F8E03CDBB25B0853EA42126B4617
:100DA000C9B25FF0060C0CFB01335A70324ABB78B3
:100DB0005FF0070C0CFB0322C9B28A1812F8E02C72
:100DC0002D4B97F803C05FF0070E0EFB0C33C9B232
:100DD000CB1813F8E03C5B0053EAC2126B46C9B271
:100DE0005FF0060C0CFB01339A70234A3B795FF0ED
:100DF000070C0CFB0322C9B28A1812F8E02CD200AF
:100E00006B46C9B25FF0060C0CFB0133DA707FE66B
:100E1000E4B2211F032900D2641EC0B2042190FB5A
:100E2000F1F0401E401910F11C01C9B215F11C006F
:100E3000C0B202F0C7FCF11DC9B23000C0B202F06E
:100E4000D0FC02F0DDFC00250EE06846EDB2062184
:100E500001FB0500F6B2305C00F07AFC761CF6B2BD
:100E6000E4B2A642F1D36D1CEDB2072D01DA0026E3
:100E7000F5E70BB0F0BD0000180B002040420F005A
:100E8000A0860100809698002DE9F04186B004000C
:100E90000D001600002041E0DFF83815C0B24118FF
:100EA00091F87A11DFF82C25C0B2821892F8492106
:100EB000C2F3C10252EAC1016A46C0B2032303FB76
:100EC00000221170DFF80C15C0B2411891F84911D9
:100ED000DFF80025C0B2821892F83421C2F3430231
:100EE00052EA41116A46C0B2032303FB002251704B
:100EF000DFF8E014C0B2411891F83411DFF8D424BF
:100F0000C0B2821892F8B620520052EAC1116A4665
:100F1000C0B2032303FB00229170401CC0B207281B
:100F2000BADB14F12101C9B214F11C00C0B202F005
:100F300049FCE91DC9B22800C0B202F052FC02F01F
:100F40005FFC002712E06846FFB2032101FB0700A7
:100F50005FFA88F818F8000000F0FAFB18F10108B1
:100F60005FFA88F8B8F1030FEDDB7F1CFFB2072FA3
:100F700002DA5FF00008F3E700202FE0F6B2642108
:100F800096FBF1F201FB12610A2291FBF2F10722BA
:100F9000DFF8403402FB0131C0B2411891F8701003
:100FA00049006A46C0B2032303FB00221170F6B267
:100FB0000A2196FBF1F201FB12610722DFF81434DB
:100FC00002FB0131C0B2411891F87010C9006A46A5
:100FD000C0B2032303FB00225170401CC0B207289B
:100FE000CCDB14F12401C9B214F12100C0B202F02B
:100FF000E9FBE91DC9B22800C0B202F0F2FB02F021
:10100000FFFB00240DE06846E4B2032101FB04006D
:10101000EDB2285C00F09CFB6D1CEDB2022DF2DB02
:10102000641CE4B2072C01DA0025F6E706B0BDE83F
:10103000F081F0B589B00C0000216DE0DFF8943349
:10104000C9B2CB1893F8F530DFF88853C9B24D19FF
:1010500095F81851C5F3C10555EAC3036D46C9B2E9
:10106000052606FB01552B70DFF86833C9B2CB1893
:1010700093F81831DFF85C53C9B24D1995F8B650A2
:10108000EDB26D0855EA43136D46C9B2052606FB5D
:1010900001556B70D2B26425D2B20A2392FBF5F6E9
:1010A00005FB16250A2695FBF6F50726DFF82473BF
:1010B00006FB0575C9B24D1995F8705092FBF3F611
:1010C00003FB16230726DFF80C7306FB0373C9B274
:1010D000CB1893F87030DBB2DB0853EAC5036D46DA
:1010E000C9B2052606FB0155AB70D2B20A2392FBAA
:1010F000F3F503FB15230725DFF8D86205FB03632F
:10110000C9B2CB1893F870305B016D46C9B20526A1
:1011100006FB0155EB70491CC9B207298EDB10F1A3
:101120002301C9B21C30C0B202F04CFBE11DC9B2B0
:101130002000C0B202F055FB02F062FB00240DE07B
:101140006846E4B2052101FB0400EDB2285C00F022
:10115000FFFA6D1CEDB2042DF2DB641CE4B2072C27
:1011600001DA0025F6E709B0F0BD38B50C0015002E
:1011700010F12B01C9B21C30C0B202F023FB14F1F4
:101180000B01C9B22000C0B202F02BFB02F038FB09
:10119000002404E0A4B2605D00F0DAFA641CA4B29A
:1011A000582CF7DB31BD2DE9F84381460C001500C2
:1011B0001E005FF024080327DFF8A80800785FFA14
:1011C00089F9484502D1F6B2002E47D05FFA89F975
:1011D000B9F10A0F15DB5FFA89F9642099FBF0F188
:1011E00000FB11900A2190FBF1F04021DFF8202B49
:1011F00001FB00223900C9B24046C0B202F0BFF97B
:1012000011E0DFF8600800780A2804DADFF85408F3
:101210000078FF2807D0DFF850283900C9B24046CF
:10122000C0B202F0ACF9DFF83C0880F8009018F189
:1012300004085FFA89F90A2099FBF0F100FB11908C
:101240004021DFF8CC2A01FB00223900C9B2404618
:10125000C0B202F057F918F1040801E018F10808CB
:10126000DFF8B00A0088A4B2A04202D1F6B2002E84
:1012700043D0DFF8A00A0480A4B24FF47A7094FB44
:10128000F0F100FB1140642190FBF1F04021DFF808
:10129000802A01FB00223900C9B24046C0B202F0E8
:1012A0006EF918F10408A4B2642094FBF0F100FB7D
:1012B00011400A2190FBF1F04021DFF8542A01FB94
:1012C00000223900C9B24046C0B202F058F918F104
:1012D0000408A4B20A2094FBF0F100FB1140402165
:1012E000DFF82C2A01FB00223900C9B24046C0B207
:1012F00002F008F918F1040801E018F10C08DFF811
:10130000180A0078EDB2A84202D1F6B2002E29D018
:10131000DFF8040A0570EDB2642095FBF0F100FBE4
:1013200011500A2190FBF1F04021DFF8E42901FB84
:1013300000223900C9B24046C0B202F020F918F1CB
:101340000408EDB20A2095FBF0F100FB115040219A
:10135000DFF8BC2901FB00223900C9B24046C0B207
:1013600002F00DF9BDE8F18338B56422DFF8AC492D
:10137000DFF8AC590B00DBB2B0FBF2F102FB11025B
:10138000D2B2B0FBF4F104FB11016424B1FBF4F11F
:1013900089B2B0FBF5F405FB1400DFF88049B0FB1F
:1013A000F4F0C0B2FFF7FFFE31BD80B50821002088
:1013B00002F00DF901BD80B5DFF868291C2100207D
:1013C000FFF7D3FEDFF85C2B1C210D20FFF7CDFECD
:1013D00001BD0000180B002038B50C0010F11C01F5
:1013E000C9B21C30C0B202F0EDF9A11DC9B2200093
:1013F000C0B202F0F6F902F003FA002400E0641C27
:10140000E4B2062C0FDA002503E00F2002F0A4F965
:101410006D1CEDB2022DF2DAEDB2012DF5D1FF20F7
:1014200002F09AF9F4E731BD38B50C0010F11C0157
:10143000C9B21C30C0B202F0C5F9A11DC9B220006A
:10144000C0B202F0CEF902F0DBF9002407E0002080
:1014500002F082F96D1CEDB2022DF8DB641CE4B2DF
:10146000062C01DA0025F6E731BD80B50200232104
:101470002420FFF78CFA01BD80B50200D2B22321EF
:101480002420FFF7D6FD01BD80B50200D2B239217C
:101490000020FFF7F9FC01BD80B5C0B2002806D0DE
:1014A000DFF8882A39210C20FFF771FA05E0DFF810
:1014B000802A39210C20FFF76AFA01BD80B50200AD
:1014C00039211E20FFF763FA01BD80B50200D2B2B8
:1014D00039212A20FFF786F901BD80B5DFF8482AB7
:1014E00039212A20FFF753FA01BD80B5020092B2DC
:1014F00039213420FFF78DF801BD80B5020023218A
:101500002E20FFF744FA01BD80B5020023213B20C5
:10151000FFF73DFA01BD80B502002F212420FFF71F
:1015200036FA01BD80B502002F212F20FEF778FE8C
:1015300001BD80B52F212F20FEF7B9FF01BD80B579
:10154000020039211820FFF722FA01BD80B5020000
:1015500023213620FFF71BFA01BD80B5FFF725FFD9
:10156000FFF729FF01BD10B50020DFF8C81908708A
:101570000020DFF8C41908700020DFF8C0190870D7
:10158000002405E015212000C0B2FFF74DFF641CC8
:10159000E4B21A2CF6DB10BD38B50400E4B21A2C04
:1015A00030DADFF890090078E4B2844210D2DFF834
:1015B00084090578E4B2EDB2AC4220D2EDB2002D40
:1015C00004D015212800C0B2FFF72EFF6D1EF1E7F1
:1015D000DFF860090078E4B2A04210D2DFF85409C5
:1015E000057808E0EDB2002D04D015212800C0B226
:1015F000FFF7F2FE6D1CE4B2EDB2AC42F2D2DFF8BE
:101600003409047031BD38B50400E4B20A2C30DA74
:10161000DFF824090078E4B2844210D2DFF8180918
:101620000578E4B2EDB2AC4220D2EDB2002D04D088
:1016300015212800C0B2FFF7F7FE6D1EF1E7DFF8B5
:10164000F4080078E4B2A04210D2DFF8EC08057884
:1016500008E0EDB2002D04D015212800C0B2FFF73C
:10166000BBFE6D1CE4B2EDB2AC42F2D2DFF8C808AA
:10167000047031BD38B50400E4B20E2C32DADFF864
:10168000BC080078E4B2844211D2DFF8B0080578D3
:10169000E4B2EDB2AC4222D2EDB2002D05D015215C
:1016A00015F10E00C0B2FFF7BFFE6D1EF0E7DFF8C8
:1016B0008C080078E4B2A04211D2DFF880080578E7
:1016C00009E0EDB2002D05D0152115F10E00C0B2D4
:1016D000FFF782FE6D1CE4B2EDB2AC42F1D2DFF84E
:1016E0005C08047031BD80B5B82002F004F80C200D
:1016F00002F032F8182002F02FF8242002F02CF823
:10170000302002F029F83C2002F026F8482002F0B0
:1017100023F8542002F020F8602002F01DF86C201D
:1017200002F01AF8782002F017F8842002F014F87A
:10173000902002F011F89C2002F00EF8A82002F090
:101740000BF8B42002F008F8002001F0D4FF01BD2E
:1017500030B583B0050000240BE0AD0001A8E4B271
:10176000205C01F0F9FF6846E4B2205C01F0F4FF70
:10177000641CE4B2022C58DA15F0C000C0B2002894
:1017800006D040280CD0802812D0C02818D01FE0E6
:10179000002001A9E4B26054142002F05FF917E0C0
:1017A0000F2001A9E4B26054142002F057F90FE0B1
:1017B000F02001A9E4B26054142002F04FF907E0D0
:1017C000FF2001A9E4B26054142002F047F9FFE7BA
:1017D000AD0015F0C000C0B2002806D040280CD0E3
:1017E000802812D0C02818D0B7E700206946E4B29C
:1017F0006054142002F032F9AFE70F206946E4B2DA
:101800006054142002F02AF9A7E7F0206946E4B2F8
:101810006054142002F022F99FE7FF206946E4B2E9
:101820006054142002F01AF997E737BD2DE9F04112
:1018300004000D001600300002F0F4F807005FF01D
:10184000000815E0DFF88C095FFA88F818F8061030
:1018500010EB0110B0F500722900C9B2E4B25FFAD2
:1018600088F814EB4800C0B201F02EFE18F1010810
:101870005FFA88F8FFB2B845E4D3BDE8F081000014
:101880002DE9F04106000F0090461D00079CDFF88F
:10189000480900785FFA88F8404502D1E4B2002C8C
:1018A00050D05FFA88F8B8F10A0F16DB5FFA88F8B3
:1018B000642098FBF0F100FB11800A2190FBF1F00D
:1018C000DFF8101911EB001010F580723900C9B261
:1018D0003000C0B201F0F8FD11E0DFF8FC0800783C
:1018E0000A280CDBDFF8F0080078FF2807D0DFF8C3
:1018F000E4283900C9B23000C0B201F0E5FDDFF8DC
:10190000D80880F80080B61C5FFA88F80A2098FB97
:10191000F0F100FB1180DFF8BC1811EB001010F59E
:1019200080723900C9B23000C0B201F0CDFDB61CE2
:10193000DFF8A8283900C9B23000C0B201F0C4FDF8
:10194000B61C00E0B61DDFF898080088ADB2A842CA
:1019500002D1E4B2002C4CD0DFF884080580ADB28F
:101960004FF47A7095FBF0F100FB1150642190FB6D
:10197000F1F0DFF8601811EB001010F580723900FB
:10198000C9B23000C0B201F09FFDB61CADB26420F8
:1019900095FBF0F100FB11500A2190FBF1F0DFF80C
:1019A000341811EB001010F580723900C9B2300004
:1019B000C0B201F089FDB61CADB20A2095FBF0F172
:1019C00000FB1150DFF80C1811EB001010F58072BD
:1019D0003900C9B23000C0B201F076FDB61CDFF8A4
:1019E000FC273900C9B23000C0B201F06DFDB61C51
:1019F00000E00836069DDFF8EC070078EDB2A8425B
:101A000002D1E4B2002C2AD0DFF8D8070570EDB27D
:101A1000642095FBF0F100FB11500A2190FBF1F0DE
:101A2000DFF8B01711EB001010F580723900C9B261
:101A30003000C0B201F048FDB61CEDB20A2095FBA3
:101A4000F0F100FB1150DFF88C1711EB001010F5CE
:101A500080723900C9B23000C0B201F035FDBDE876
:101A6000F081000046120020180A0020F0B595B061
:101A70000C0042F210718A4201D342F20F7200212F
:101A80001CE1DFF8E43AC9B2CB1893F8F530DFF87F
:101A9000D85AC9B24D1995F88151C5F3C10555EA17
:101AA000C3036D46C9B20C2606FB01552B70DFF847
:101AB000B83AC9B2CB1893F881315B016D46C9B20F
:101AC0000C2606FB01556B70DFF89C3AC9B2CB18A7
:101AD00093F80A315B006D46C9B20C2606FB01552E
:101AE000AB70DFF8843AC9B2CB1893F85E31DFF8F7
:101AF000785AC9B24D1995F80351EDB2ED0855EA7F
:101B0000C3036D46C9B20C2606FB0155EB70DFF826
:101B1000583AC9B2CB1893F80331DFF84C5AC9B21E
:101B20004D1995F85751EDB26D0855EA43136D46BE
:101B3000C9B20C2606FB01552B71DFF82C3AC9B24D
:101B4000CB1893F85731DFF8205AC9B24D5D6D00BC
:101B500055EAC3136D46C9B20C2606FB01556B71DD
:101B600042F21075DFF8003AC9B2CB1893F8B630DC
:101B7000B2FBF5F605FB16254FF47A76B5FBF6F5C4
:101B80000726DFF8E47906FB0575C9B24D1995F80B
:101B90007050EDB26D0855EAC3036D46C9B20C260C
:101BA00006FB0155AB7142F210754FF47A73B2FB2C
:101BB000F5F605FB16254FF47A76B5FBF6F5072604
:101BC000DFF8A47906FB0575C9B24D1995F8705078
:101BD000B2FBF3F603FB16236426B3FBF6F30726EA
:101BE000DFF8847906FB0373C9B2CB1893F8703021
:101BF0005B0053EAC5136D46C9B20C2606FB0155BE
:101C0000EB7164250A23B2FBF5F605FB16250A26BF
:101C1000B5FBF6F50726DFF8507906FB0575C9B266
:101C20004D1995F87050B2FBF3F603FB1623072607
:101C3000DFF8347906FB0373C9B2CB1893F8703020
:101C4000DBB2DB0853EAC5036D46C9B20C2606FBBE
:101C500001552B720A23B2FBF3F503FB152307256D
:101C6000DFF8046905FB0363C9B2CB1893F8703041
:101C7000DFF8F458C9B24D1995F81851EDB26D0856
:101C800055EA43136D46C9B20C2606FB01556B722B
:101C9000DFF8D438C9B2CB1893F81831DFF8C85838
:101CA000C9B24D1995F896516D0055EAC3136D46AA
:101CB000C9B20C2606FB0155AB72491CC9B20729F3
:101CC000FFF6DFAE10F13101C9B21C30C0B201F035
:101CD00079FDE11DC9B22000C0B201F082FD01F022
:101CE0008FFD00240DE06846E4B20C2101FB0400E6
:101CF000EDB2285CFFF72CFD6D1CEDB20B2DF2DB75
:101D0000641CE4B2072C01DA0025F6E715B0F0BD3B
:101D1000580700204012002047120020A086010032
:101D200080969800EC000020F0B591B00C000021E6
:101D3000CEE0DFF83438C9B2CB1893F81831DFF8A9
:101D40002858C9B24D1995F85B50C5F3C10555EA3D
:101D5000C3036D46C9B2092606FB01552B70DFF897
:101D60000838C9B2CB1893F85B30DFF8FC57C9B21A
:101D70004D1995F87A51EDB26D0855EA43136D4649
:101D8000C9B2092606FB01556B70DFF8DC37C9B212
:101D9000CB1893F87A31DFF8D057C9B24D1995F8BE
:101DA00065516D0055EAC3136D46C9B2092606FB9D
:101DB0000155AB70DFF8B037C9B2CB1893F8813159
:101DC000DFF8A457C9B24D1995F85E51EDB2ED0890
:101DD00055EAC3036D46C9B2092606FB0155EB70EF
:101DE000DFF88437C9B2CB1893F85E31DFF8785743
:101DF000C9B24D1995F85B50EDB26D0855EA431321
:101E00006D46C9B2092606FB01552B71DFF858371C
:101E1000C9B2CB1893F85B30DFF84C57C9B24D19F3
:101E200095F850516D0055EAC3136D46C9B20926A5
:101E300006FB01556B71D2B26425DFF82C37C9B2AD
:101E4000CB1893F8B63092FBF5F605FB16250A265B
:101E500095FBF6F50726DFF8107706FB0575C9B286
:101E60004D1995F87050EDB26D0855EAC3036D46F3
:101E7000C9B2092606FB0155AB71D2B26425D2B2B4
:101E80000A2392FBF5F605FB16250A2695FBF6F5C7
:101E90000726DFF8D47606FB0575C9B24D1995F80B
:101EA000705092FBF3F603FB16230726DFF8B87693
:101EB00006FB0373C9B2CB1893F870305B0053EA8A
:101EC000C5136D46C9B2092606FB0155EB71491CC5
:101ED000C9B20729FFF62DAF10F12B01C9B21C3092
:101EE000C0B201F06FFCE11DC9B22000C0B201F028
:101EF00078FC01F085FC00240DE06846E4B209217D
:101F000001FB0400EDB2285CFFF722FC6D1CEDB272
:101F1000082DF2DB641CE4B2072C01DA0025F6E799
:101F200011B0F0BD4401002034B200083CB20008FA
:101F300044B20008371B0020381B0020391B00204A
:101F4000F0B591B00C000021E4E0DFF81C36C9B216
:101F5000CB1893F8F530DFF81056C9B24D1995F843
:101F60008151C5F3C10555EAC3036D46C9B20926BF
:101F700006FB01552B70DFF8F035C9B2CB1893F88A
:101F800081315B016D46C9B2092606FB01556B70B4
:101F9000DFF8D435C9B2CB1893F8FC305B006D463E
:101FA000C9B2092606FB0155AB70DFF8BC35C9B2D2
:101FB000CB1893F80331DFF8B055C9B24D1995F835
:101FC0003451EDB2ED0855EAC3036D46C9B2092696
:101FD00006FB0155EB70DFF89035C9B2CB1893F8CA
:101FE0003431DFF88455C9B24D1995F8E750EDB298
:101FF0006D0855EA43136D46C9B2092606FB015523
:102000002B71DFF86435C9B2CB1893F8E730DFF8ED
:102010005855C9B24D1995F88F516D0055EAC31343
:102020006D46C9B2092606FB01556B71D2B2642513
:10203000DFF83435C9B2CB1893F8B63092FBF5F619
:1020400005FB16250A2695FBF6F50726DFF8187519
:1020500006FB0575C9B24D1995F87050EDB26D08C3
:1020600055EAC3036D46C9B2092606FB0155AB719B
:10207000D2B26425D2B20A2392FBF5F605FB1625EF
:102080000A2695FBF6F50726DFF8DC7406FB0575D6
:10209000C9B24D1995F87050DFF8CC64C9B28E19E9
:1020A00096F86260B60056EAC51592FBF3F603FB9C
:1020B00016230726DFF8B07406FB0373C9B2CB18EA
:1020C00093F87030DBB255EA53036D46C9B2092666
:1020D00006FB0155EB71D2B20A2392FBF3F503FB29
:1020E00015230725DFF8806405FB0363C9B2CB180D
:1020F00093F87030DFF87054C9B24D1995F86551F6
:102100006D0055EAC3136D46C9B2092606FB015599
:102110002B72491CC9B20729FFF617AF10F12D0128
:10212000C9B21C30C0B201F04DFBE11DC9B22000A4
:10213000C0B201F056FB01F063FB00240DE06846DD
:10214000E4B2092101FB0400EDB2285CFFF700FBBB
:102150006D1CEDB2092DF2DB641CE4B2072C01DA30
:102160000025F6E711B0F0BD2DE9F8438046894619
:1021700015001E00089CE4B2002C07D0DFF8B4293B
:102180004946C9B24046C0B2FFF750FB18F10A08F1
:10219000002719E0F6B2FFB2BE4202D0E4B2002C32
:1021A0000FD00C48DFF89019FFB27A5D515C10EB4C
:1021B0000110B0F500724946C9B24046C0B201F004
:1021C00083F918F102087F1CFFB20A2FE2DBBDE899
:1021D000F1830000D802002048120020B80300203C
:1021E000421200204912002030B595B00C00D2B246
:1021F000002A40F0C6800021C9B2072980F28D81F3
:10220000D94AC9B28A1892F8F520D74BC9B2CB186F
:1022100093F88131C3F3C10353EAC2026B46C9B2DA
:102220000C2505FB01331A70CF4AC9B28A1892F8FF
:10223000812152016B46C9B20C2505FB01335A704E
:10224000C94AC9B28A1892F83B2152006B46C9B2FA
:102250000C2505FB01339A70C34AC9B28A1892F85B
:102260004921C14BC9B2CB1893F8FC30DBB2DB0873
:1022700053EAC2026B46C9B20C2505FB0133DA7082
:10228000B94AC9B28A1892F8FC20B74BC9B2CB1828
:1022900093F80331DBB25B0853EA42126B46C9B2D2
:1022A0000C2505FB01331A71AF4AC9B28A5CAE4BEB
:1022B000C9B2CB5C5B0053EAC2126B46C9B20C25B3
:1022C00005FB01335A71A84AC9B28A1892F8B620A0
:1022D000A54BC9B2CB1893F8E730DBB25B0853EAE1
:1022E000C2026B46C9B20C2505FB01339A719E4AA6
:1022F000C9B28A1892F8E7209B4BC9B2CB1893F861
:1023000073315B0053EAC2126B46C9B20C2505FB60
:102310000133DA71944AC9B28A1892F86C21924B4F
:10232000C9B2CB1893F84931DBB2DB0853EAC202D9
:102330006B46C9B20C2505FB01331A728A4AC9B231
:102340008A1892F84921884BC9B2CB5CDBB25B0892
:1023500053EA42126B46C9B20C2505FB01335A728F
:10236000814AC9B28A5C804BC9B2CB5C5B0053EA3C
:10237000C2126B46C9B20C2505FB01339A72491C87
:102380003AE70021C5E0784AC9B28A1892F8F520E8
:10239000754BC9B2CB1893F88131C3F3C10353EA2B
:1023A000C2026B46C9B20C2505FB01331A706E4A96
:1023B000C9B28A1892F8812152016B46C9B20C2524
:1023C00005FB01335A70684AC9B28A1892F83B215A
:1023D00052006B46C9B20C2505FB01339A70624A64
:1023E000C9B28A1892F849215F4BC9B2CB1893F849
:1023F000FC30DBB2DB0853EAC2026B46C9B20C25E3
:1024000005FB0133DA70584AC9B28A1892F8FC20E9
:10241000554BC9B2CB1893F80331DBB25B0853EAD2
:1024200042126B46C9B20C2505FB01331A714E4AA4
:10243000C9B28A5C4C4BC9B2CB5C5B0053EAC21296
:102440006B46C9B20C2505FB01335A71464AC9B225
:102450008A1892F8B620444BC9B2CB1893F83B3196
:10246000DBB25B0853EAC2026B46C9B20C2505FB1E
:1024700001339A713C4AC9B28A1892F83B213A4B0F
:10248000C9B2CB1893F8E7305B0053EAC2126B462F
:10249000C9B20C2505FB0133DA71334AC9B28A1877
:1024A00092F84221304BC9B2CB1893F87331DBB2AA
:1024B000DB0853EAC2026B46C9B20C2505FB0133A7
:1024C0001A72294AC9B28A1892F87321264BC9B2E6
:1024D000CB1893F8E730DBB25B0853EA42126B4645
:1024E000C9B20C2505FB01335A721F4AC9B28A18BA
:1024F00092F8E7201C4BC9B2CB1893F834315B003B
:1025000053EAC2126B46C9B20C2505FB01339A721D
:10251000491CC9B20729FFF636AF10F13101C9B223
:102520001C30C0B201F04EF9E11DC9B22000C0B2AA
:1025300001F057F901F064F900240DE06846E4B2B7
:102540000C2101FB0400EDB2285CFFF701F96D1CC2
:10255000EDB20B2DF2DB641CE4B2072C01DA00258E
:10256000F6E715B030BD0000180B002070B596B02E
:102570000C00D2B2002A00D001220021D7E0DFF8FF
:10258000BC35C9B2CB1893F8F530DFF8B055C9B2F5
:102590004D1995F88151C5F3C10555EAC3036D4640
:1025A000C9B20C2606FB01552B70DFF89035C9B275
:1025B000CB1893F881315B016D46C9B20C2606FB3E
:1025C00001556B70DFF87435C9B2CB1893F82D3113
:1025D0005B006D46C9B20C2606FB0155AB70DFF8F7
:1025E0005C35C9B2CB1893F80331DFF85055C9B246
:1025F0004D1995F88F51EDB2ED0855EAC3036D46BC
:10260000C9B20C2606FB0155EB70DFF83035C9B2B4
:10261000CB1893F88F31DFF82455C9B24D5DEDB278
:102620006D0855EA43136D46C9B20C2606FB0155E9
:102630002B71DFF80835C9B2CB5CDFF80055C9B2A1
:102640004D5D6D0055EAC3136D46C9B20C2606FBFD
:1026500001556B71DFF8E434C9B2CB1893F8B6308A
:10266000DFF8D854C9B24D1995F83B51EDB26D0859
:1026700055EAC3036D46C9B20C2606FB0155AB7182
:10268000DFF8B834C9B2CB1893F83B31DFF8AC545B
:10269000C9B24D1995F849516D0055EAC3136D46FD
:1026A000C9B20C2606FB0155EB71DFF89034C9B2B4
:1026B000CB1893F8FC30DFF88454C9B24D1995F863
:1026C0000351EDB2ED0855EAC3036D46C9B20C26BD
:1026D00006FB01552B72DFF86434C9B2CB1893F8AE
:1026E0000331DFF85854D2B2072606FB0255C9B2AF
:1026F0004D1995F87050EDB26D0855EA43136D46CB
:10270000C9B20C2606FB01556B72DFF83034D2B229
:10271000072505FB0233C9B2CB1893F87030DB01F3
:102720006D46C9B20C2606FB0155AB72491CC9B2F5
:102730000729FFF624AF10F13101C9B21C30C0B235
:1027400001F040F8E11DC9B22000C0B201F049F823
:1027500001F056F800240DE06846E4B20C2101FBBC
:102760000400EDB2285CFEF7F3FF6D1CEDB20B2DFB
:10277000F2DB641CE4B2072C01DA0025F6E716B0A0
:1027800070BDF0B599B00C000021A8E1DFF8AC33C2
:10279000C9B2CB1893F85E31DFF8A053C9B24D1916
:1027A00095F80351C5F3C10555EAC3036D46C9B297
:1027B0000E2606FB01552B70DFF88033C9B2CB180B
:1027C00093F80331DFF87453C9B24D1995F80A51E3
:1027D000EDB26D0855EA43136D46C9B20E2606FBED
:1027E00001556B70DFF85433C9B2CB1893F80A3136
:1027F000DFF84853C9B24D5D6D0055EAC3136D460D
:10280000C9B20E2606FB0155AB70DFF83033C9B2F2
:10281000CB5CDFF82853C9B24D5DEDB2ED0855EA47
:10282000C3036D46C9B20E2606FB0155EB70DFF8F7
:102830000C33C9B2CB5CDFF80453C9B24D1995F81B
:10284000B650EDB26D0855EA43136D46C9B20E2677
:1028500006FB01552B71DFF88856DFF88836B2FB8E
:10286000F5F605FB1625DFF87C66B5FBF6F50726C1
:10287000DFF8C87206FB0575C9B24D1995F870509E
:10288000B2FBF3F603FB1623DFF85C66B3FBF6F34B
:102890000726DFF8A87206FB0373C9B2CB1893F8BA
:1028A0007030DBB2DB0853EAC5036D46C9B20E26B1
:1028B00006FB01556B71DFF82C56DFF82C36B2FBA6
:1028C000F5F605FB1625DFF82066B5FBF6F50726BD
:1028D000DFF8687206FB0575C9B24D1995F870509E
:1028E000DFF85862C9B28E1996F8626056EA45154B
:1028F000B2FBF3F603FB1623DFF8F065B3FBF6F348
:102900000726DFF8387206FB0373C9B2CB1893F8B9
:102910007030DBB255EAD3036D46C9B20E2606FB12
:102920000155AB71DFF8C055DFF8C035B2FBF5F6E5
:1029300005FB1625DFF8B465B5FBF6F50726DFF8CD
:10294000FC7106FB0575C9B24D1995F87050B2FBC4
:10295000F3F603FB162342F21076B3FBF6F30726D9
:10296000DFF8D87106FB0373C9B2CB1893F8703047
:10297000DBB25B0853EA45136D46C9B20E2606FB6F
:102980000155EB71DFF8645542F21073B2FBF5F6B6
:1029900005FB162542F21076B5FBF6F50726DFF8A3
:1029A0009C7106FB0575C9B24D1995F87050B2FBC4
:1029B000F3F603FB16234FF47A76B3FBF6F3072600
:1029C000DFF8787106FB0373C9B2CB1893F8703047
:1029D0005B0053EAC5136D46C9B20E2606FB0155CE
:1029E0002B724FF47A75DFF85431C9B2CB1893F8D3
:1029F0006230B2FBF5F605FB16256426B5FBF6F54D
:102A00000726DFF8387106FB0575C9B24D1995F830
:102A100070506D0055EA03136D46C9B20E2606FBD1
:102A200001556B7264250A23B2FBF5F605FB1625EA
:102A30000A26B5FBF6F50726DFF8007106FB0575DB
:102A4000C9B24D1995F87050B2FBF3F603FB16238B
:102A50000726DFF8E87006FB0373C9B2CB1893F8BA
:102A60007030DBB2DB0853EAC5036D46C9B20E26EF
:102A700006FB0155AB720A23B2FBF3F503FB1523EA
:102A80000725DFF8B86005FB0363C9B2CB1893F8DC
:102A90007030DFF8A850C9B24D1995F81851EDB251
:102AA0006D0855EA43136D46C9B20E2606FB015563
:102AB000EB72DFF88830C9B2CB1893F81831DFF821
:102AC0007C50C9B24D1995F896516D0055EAC31363
:102AD0006D46C9B20E2606FB01552B73491CC9B2BF
:102AE0000729FFF653AE10F13501C9B21C30C0B250
:102AF00000F068FEE11DC9B22000C0B200F071FE16
:102B000000F07EFE00240DE06846E4B20E2101FBD9
:102B10000400EDB2285CFEF71BFE6D1CEDB20D2D1E
:102B2000F2DB641CE4B2072C01DA0025F6E719B0E9
:102B3000F0BD00004CB2000878000020180B002007
:102B4000F0B599B00C0000219FE1DFF88C35C9B2D7
:102B5000CB1893F8F530DFF88055C9B24D1995F8C8
:102B60008151C5F3C10555EAC3036D46C9B20E26AE
:102B700006FB01552B70DFF86035C9B2CB1893F80E
:102B80008131DFF85455C9B24D1995F85E51EDB257
:102B90006D0855EA43136D46C9B20E2606FB015572
:102BA0006B70DFF83435C9B2CB1893F85E31DFF8BB
:102BB0002855C9B24D5D6D0055EAC3136D46C9B2C3
:102BC0000E2606FB0155AB70DFF80C35C9B2CB18E9
:102BD00093F8EE30DFF80055C9B24D1995F80A5157
:102BE000EDB2ED0855EAC3036D46C9B20E2606FBE9
:102BF0000155EB70DFF8E034C9B2CB1893F80A3115
:102C0000DFF8D454C9B24D1995F84951EDB26D08A9
:102C100055EA43136D46C9B20E2606FB01552B71CA
:102C2000B04DDFF8B434C9B2CB1893F84931DFF8AE
:102C3000A864C9B28E1996F8B660760056EAC31336
:102C4000B2FBF5F605FB1625A74EB5FBF6F50726F4
:102C5000DFF8847406FB0575C9B24D1995F87050FC
:102C6000EDB253EAD5036D46C9B20E2606FB0155F7
:102C70006B719C4D9C4BB2FBF5F605FB16259A4EED
:102C8000B5FBF6F50726DFF8507406FB0575C9B2EB
:102C90004D1995F87050DFF84064C9B28E1996F856
:102CA000626056EA4515B2FBF3F603FB16238F4E1E
:102CB000B3FBF6F30726DFF8207406FB0373C9B2F3
:102CC000CB1893F87030DBB255EAD3036D46C9B226
:102CD0000E2606FB0155AB71834D844BB2FBF5F616
:102CE00005FB1625814EB5FBF6F50726DFF8E873E0
:102CF00006FB0575C9B24D1995F87050B2FBF3F695
:102D000003FB162342F21076B3FBF6F30726DFF837
:102D1000C87306FB0373C9B2CB1893F87030DBB2EB
:102D20005B0853EA45136D46C9B20E2606FB0155F2
:102D3000EB716E4D42F21073B2FBF5F605FB1625F2
:102D400042F21076B5FBF6F50726DFF88C7306FB2A
:102D50000575C9B24D1995F87050B2FBF3F603FB37
:102D600016234FF47A76B3FBF6F30726DFF8687381
:102D700006FB0373C9B2CB1893F870305B0053EABB
:102D8000C5136D46C9B20E2606FB01552B724FF4D2
:102D90007A75DFF84433C9B2CB1893F86230B2FBCE
:102DA000F5F605FB16256426B5FBF6F50726DFF8D4
:102DB000287306FB0575C9B24D1995F870506D0062
:102DC00055EA03136D46C9B20E2606FB01556B7218
:102DD00064250A23B2FBF5F605FB16250A26B5FB8A
:102DE000F6F50726DFF8F07206FB0575C9B24D1936
:102DF00095F87050B2FBF3F603FB16230726DFF8B5
:102E0000D87206FB0373C9B2CB1893F87030DBB2EB
:102E1000DB0853EAC5036D46C9B20E2606FB015511
:102E2000AB720A23B2FBF3F503FB15230725DFF88A
:102E3000A86205FB0363C9B2CB1893F87030DFF8C2
:102E40009852C9B24D1995F81851EDB26D0855EA6E
:102E500043136D46C9B20E2606FB0155EB72DFF82F
:102E60007832C9B2CB1893F81831DFF86C52C9B276
:102E70004D1995F896516D0055EAC3136D46C9B2C8
:102E80000E2606FB01552B73491CC9B20729FFF614
:102E90005CAE10F13501C9B21C30C0B200F092FC3A
:102EA000E11DC9B22000C0B200F09BFC00F0A8FCFC
:102EB00000240DE06846E4B20E2101FB0400EDB2EF
:102EC000285CFEF745FC6D1CEDB20D2DF2DB641C99
:102ED000E4B2072C01DA0025F6E719B0F0BD0000D6
:102EE00000E1F5058096980040420F00A0860100A1
:102EF000F0B59DB00C000021C2E0774BC9B2CB18F1
:102F000093F8F530744DC9B24D1995F88151C5F358
:102F1000C10555EAC3036D46C9B20E2606FB01552D
:102F20002B706D4BC9B2CB1893F881316A4DC9B281
:102F30004D5DEDB26D0855EA43136D46C9B20E26DC
:102F400006FB01556B70644BC9B2CB5C624DC9B2D4
:102F50004D5D6D0055EAC3136D46C9B20E2606FBE2
:102F60000155AB705C4BC9B2CB1893F87A315A4D0E
:102F7000C9B24D1995F84951EDB2ED0855EAC303B0
:102F80006D46C9B20E2606FB0155EB70524BC9B215
:102F9000CB1893F84931504DC9B24D1995F83451B9
:102FA000EDB26D0855EA43136D46C9B20E2606FB15
:102FB00001552B71D2B26425474BC9B2CB1893F897
:102FC0003431454EC9B28E1996F8B660760056EA8D
:102FD000C31392FBF5F605FB16250A2695FBF6F5BD
:102FE00007263D4F06FB0575C9B24D1995F870507F
:102FF000EDB253EAD5036D46C9B20E2606FB015564
:103000006B71D2B26425D2B20A2392FBF5F605FBAE
:1030100016250A2695FBF6F507262F4F06FB0575A4
:10302000C9B24D1995F8705092FBF3F603FB1623C5
:103030000726294F06FB0373C9B2CB1893F87030EB
:10304000DBB25B0853EA45136D46C9B20E2606FB98
:103050000155AB71D2B20A2392FBF3F503FB1523A2
:1030600007251D4E05FB0363C9B2CB1893F87030DA
:10307000DB016D46C9B20E2606FB0155EB71491CFA
:10308000C9B20729FFF639AF10F12B01C9B21C30C4
:10309000C0B200F097FBE11DC9B22000C0B200F041
:1030A000A0FB00F0ADFB00240DE06846E4B20E2169
:1030B00001FB0400EDB2285CFEF74AFB6D1CEDB28B
:1030C000082DF2DB641CE4B2072C01DA0025F6E7D8
:1030D0001DB0F0BD00000000180B002010B504006A
:1030E000DFF83405007805280BDA2CA2DFF8280574
:1030F0000078C0000C300100C9B20320FDF747FC86
:103100001CE0E4B2082C0BDA24A2DFF80C050078EE
:10311000C0001C380100C9B21E20FDF738FC0DE0CC
:10312000E4B2122C0ADADFF8F4242821DFF8E804EC
:1031300000784000801EC0B200F0C6F9DFF8D80465
:103140000470E4B2052C0BDA15A2DFF8CC04007889
:10315000C0000C300100C9B20320FDF718FC1CE0D0
:10316000E4B2082C0BDA0EA2DFF8AC040078C00041
:103170001C380100C9B21E20FDF709FC0DE0E4B2C5
:10318000122C0ADADFF898242821DFF88C04007862
:103190004000801EC0B200F097F910BD2000000072
:1031A0003E000000F8B5040005250C270026E4B217
:1031B000082C08DADFF86C040078082803DB00200C
:1031C000FDF70DF80126E4B2002C02D0F6B2002E75
:1031D00008D0DFF8540442783900C9B22800C0B2E0
:1031E000FFF7C4F90837E4B2002C05D0E4B2012C93
:1031F00002D0F6B2002E08D0DFF82C048278390015
:10320000C9B22800C0B2FEF79BFE0837E4B2002C1A
:1032100005D0E4B2022C02D0F6B2002E1AD0DFF8AC
:103220000804028A3900C9B22800C0B2FEF71EFCA9
:10323000E4B2002C1AD0F6B2002E17D1DFF8E80362
:10324000008A00F0D0FC00F096FC00F0D0FC00F00A
:1032500051FD0BE0DFF8CC030078022806D1E4B280
:10326000022C03D000F0CEFC00F04BFD0837E4B296
:10327000002C05D0E4B2032C02D0F6B2002E08D008
:10328000DFF8A403C2783900C9B22800C0B2FEF743
:10329000ABFF0837E4B2002C05D0E4B2042C02D016
:1032A000F6B2002E08D0DFF8800302793900C9B2E7
:1032B0002800C0B2FEF738FD083720250C27E4B2FD
:1032C000002C05D0E4B2052C02D0F6B2002E07D0B7
:1032D000D54842693900C9B22800C0B2FFF730FCB6
:1032E0000837E4B2002C05D0E4B2062C02D0F6B2C6
:1032F000002E14D0CC48C27B3900C9B22800C0B21D
:10330000FFF7F6FDF6B2002E14D1E4B2002C11D076
:1033100000F031FC00F06BFC00F0ECFC0AE0C1486E
:103320000078062806D1E4B2062C03D000F06AFC2F
:1033300000F0E7FC0837E4B2002C05D0E4B2072C1B
:1033400002D0F6B2002E07D0B74882693900C9B260
:103350002800C0B2FFF715FA083704251827E4B291
:10336000082C13DBAF48007808280FDA0020FCF7A0
:1033700036FF01200090B4F10803DBB2AB4A3900FC
:10338000C9B22800C0B2FEF7EFFE0EE0E4B2082C8E
:103390000BDB00200090B4F10803DBB2A34A390034
:1033A000C9B22800C0B2FEF7DFFE9E480470F1BD2E
:1033B00080B5020018213020FEF738FA01BD80B533
:1033C0009B4A30210A20FDF7E2FA01BD80B5994AF7
:1033D00030210A20FDF7DBFA01BD2DE9F04383B06F
:1033E0000C00150008261827C0B2642190FBF1F2EA
:1033F00001FB12010A2291FBF2F8C0B20A2190FBF4
:10340000F1F201FB1209EDB2002D06D07FA23900C6
:10341000C9B23000C0B2FEF709FA361D7F485FFA24
:1034200088F810EB081010F580723900C9B230002E
:10343000C0B200F049F8B61C78485FFA89F910EB81
:10344000091010F580723900C9B23000C0B200F026
:103450003BF8B61CEDB2002D06D06DA23900C9B202
:103460003000C0B2FEF7E2F9B61C6421724A73481C
:103470002B00DBB20193B4FBF1F301FB1341C9B2A2
:103480000091B4FBF2F102FB11416422B1FBF2F3B3
:103490009BB2B4FBF0F100FB11406749B0FBF1F2C5
:1034A000D2B23900C9B23000C0B2FEF7E9F9123623
:1034B000EDB2002D06D057A23900C9B23000C0B21B
:1034C000FEF7B4F9BDE8F78338B50C00150010F12C
:1034D0001D01C9B21C30C0B200F074F914F10F0123
:1034E000C9B22000C0B200F07CF900F089F90024D4
:1034F00004E0A4B2605DFEF72BF9641CA4B2102CAA
:10350000F7DB31BD70B50D00140010F11F01C9B219
:103510001C30C0B200F056F915F11F01C9B22800E5
:10352000C0B200F05EF900F06BF9002521E0EDB2C9
:10353000F6B216EB4500005DEDB2F6B216EB4501B2
:10354000312905D0EDB2F6B216EB4501332908D189
:103550003B49EDB2F6B216EB4502511891F88012D4
:103560000843C0B2FEF7F4F8761CF6B2022EDEDB9A
:103570006D1CEDB2202D01DA0026F6E770BD70B5A6
:103580000C00150010F11F01C9B21C30C0B200F0D0
:1035900019F914F11F01C9B22000C0B200F021F9DD
:1035A00000F02EF900240CE0E4B2F6B216EB440071
:1035B000405DC0B2FEF7CCF8761CF6B2022EF3DB0B
:1035C000641CE4B2202C01DA0026F6E770BD10B5C9
:1035D0000C0010F13901C9B21C30C0B200F0F2F891
:1035E00014F10B01C9B22000C0B200F0FAF800F0EB
:1035F00007F9002405E01348A4B2205CFEF7A8F800
:10360000641CA4B2A52CF6DB10BD000043480000EA
:103610003A000000485A0000351B0020D802002064
:10362000B8060020361B0020181A0020381A002087
:1036300054B2000834B20008A086010080969800B9
:10364000580700209C01002010B582B08020ADF802
:10365000000010208DF8030002208DF8020069465A
:10366000564800F075FB4FF48070ADF80000102054
:103670008DF8030002208DF8020069464F4800F0E3
:1036800067FB4FF40070ADF8000010208DF80300C8
:1036900002208DF802006946484800F059FB0120DD
:1036A000ADF8000010208DF8030002208DF8020014
:1036B0006946434800F04CFB0220ADF800001020A2
:1036C0008DF8030002208DF8020069463C4800F0A6
:1036D0003FFB01213A4800F0ACFB002403E0C82086
:1036E00000F0BCF9641CE4B2C82CF8DB01213448BA
:1036F00000F09CFB13BD38B504000221304800F0F7
:1037000098FB4FF400712D4800F093FB00250AE070
:1037100080212A4800F08DFB64004FF48071274817
:1037200000F084FB6D1CEDB2082D0BDA4FF48071B4
:10373000224800F07EFB2006EAD580211F4800F0D9
:1037400075FBE9E74FF400711C4800F06FFB0221A4
:103750001B4800F06BFB31BD38B50400022118484E
:1037600000F067FB4FF40071144800F05FFB002588
:103770000AE08021114800F05CFB64004FF4807186
:103780000E4800F053FB6D1CEDB2082D0BDA4FF420
:1037900080710A4800F04DFB2006EAD580210748D9
:1037A00000F044FBE9E74FF40071044800F03EFBF1
:1037B0000221034800F03AFB31BD0000000C01403B
:1037C0000018014038B504000D001520FFF793FFE5
:1037D0002000C0B2FFF7C0FF2800C0B2FFF7BCFF57
:1037E00031BD38B504000D007520FFF784FF2000BF
:1037F000C0B2FFF7B1FF2800C0B2FFF7ADFF31BD87
:1038000080B55C20FFF777FF01BD10B50400A02054
:10381000FFF771FF2000C0B2FFF79EFF1120FFF7F6
:103820009BFF10BD10B50400A120FFF764FF20002E
:10383000C0B2FFF791FF10BD10B50400A220FFF742
:103840005AFF2000C0B2FFF787FF10BD80B550F0CF
:10385000A400C0B2FFF74FFF01BD70B504000D001A
:10386000160054F0A800C0B2FFF745FFE4B2002CE8
:1038700007D12800C0B2FFF76FFF3000C0B2FFF7DA
:103880006BFF70BD10B50400AB20FFF734FF2000C4
:10389000C0B2FFF761FF10BD80B550F0AE00C0B2FE
:1038A000FFF729FF01BD10B50400B120FFF723FF8A
:1038B0002000C0B2FFF750FF10BD10B50400B320C8
:1038C000FFF719FF2000C0B2FFF746FF10BD38B563
:1038D00004000D00B420FFF70EFF54F0A000C0B2AA
:1038E000FFF73AFF55F00500C0B2FFF735FF31BDD5
:1038F00010B50400B520FFF7FEFE2000C0B2FFF7B0
:103900002BFF10BD10B50400B620FFF7F4FE200019
:10391000C0B2FFF721FF10BD10B50400BB20FFF7B8
:10392000EAFE2000C0B2FFF717FF10BD10B504007B
:10393000BE20FFF7E0FE2000C0B2FFF70DFF10BD74
:1039400010B50400C120FFF7D6FE2000C0B2FFF77B
:1039500003FF10BD10B50400C720FFF7CCFE200008
:10396000C0B2FFF7F9FE10BD10B50400CA20FFF782
:10397000C2FE2000C0B2FFF7EFFE10BD10B504007C
:10398000D120FFF7B8FE54F08200C0B2FFF7E4FE8A
:103990002020FFF7E1FE10BD10B50400FD20FFF769
:1039A000AAFE54F01200C0B2FFF7D6FE10BDF0B46C
:1039B000016844688368091801EB5402E40748BFB2
:1039C0004B440C3091422BD011F8014B14F00305FD
:1039D00004BF11F8015BED1C26090F2E07D111F869
:1039E000016B0F3603E011F8017B03F8017B6D1EBC
:1039F000F9D1002EE6D0A40811F8015B04F003040D
:103A0000032C08BF11F8014B05EB04241C1BB51C4B
:103A1000D8D014F8016B03F8016B6D1EF9D1D1E712
:103A2000F0BC704700F10103810704D010F8011BBE
:103A300089B18107FAD10268B2F10131914311F0E5
:103A4000803F04BF50F8042FF6E710F8011B11B1B6
:103A500010F8011BFBE7C01A7047FEE70100481E83
:103A6000002906D0002189B21829F7DA00BF491CC5
:103A7000F9E7704780B54FF47A714843FFF7EEFFDE
:103A800001BD000010B588B00220ADF8000018207C
:103A90008DF8030003208DF8020069466C4800F0A1
:103AA00057F9042440F6B830B0FBF4F069490880B7
:103AB000694800F023FA0121022000F0CAFB601ED1
:103AC000ADF804000020ADF80A000020ADF80600B3
:103AD00060480088401EADF8080001A95E4800F06B
:103AE00072FA04A800F0C6FA6020ADF810005B4836
:103AF0000068584909884843642190FBF1F0ADF80B
:103B000016000020ADF818000120ADF8120004A93D
:103B1000514800F073FA08214F4800F0F5FA0121EE
:103B20004D4800F0E3FA00214B4800F0C2FA0122B0
:103B30000121494800F0CEFA08B010BDE0B54001BF
:103B40000221474AB2FBF0F0B0FBF1F0414A10808D
:103B5000481EADF800000020ADF806000020ADF8CA
:103B600002003C480088401EADF8040069463A480F
:103B700000F029FA07BD00201DE03A49C0B251F813
:103B80002010344A128851434FF4807291FBF2F1B5
:103B9000354AC0B242F820103349C0B251F8201063
:103BA000324AD27B51430A22B1FBF2F12E4AC0B213
:103BB00042F82010401CC0B22028DEDB704780B5E0
:103BC0000121254800F067FA0121234800F071FA2D
:103BD00001BD80B50021204800F06BFA00211E488D
:103BE00000F059FA01BD80B5FFF7A8FF01BD80B50F
:103BF0001F480078002804D101201D490870FFF7F4
:103C0000DEFF01BD80B5002019490870FFF7E1FF14
:103C100001BD80B50121104800F086FA002816D0B9
:103C200001210D4800F094FA12480078401C202130
:103C300090FBF1F202FB11020E4802700A480D4996
:103C4000097850F8211089B2034800F066FA01BDE6
:103C5000000C0140141B002000040040A8110020AB
:103C600000366E01AC110020A8180020181A0020A0
:103C70003B1B00203A1B002080B54FF44840ADF8B4
:103C8000000010208DF8030002208DF80200694624
:103C90002D4800F05DF84FF4F840ADF8000010201A
:103CA0008DF8030002208DF802006946274800F0D5
:103CB0004FF801BD80B5C0B2002805D04FF40051C7
:103CC000224800F0B3F804E04FF400511F4800F020
:103CD000B0F801BD80B5C0B2002805D04FF48041D6
:103CE0001A4800F0A3F804E04FF48041174800F0B0
:103CF000A0F801BD80B54FF40061144800F096F8BB
:103D000001BD80B54FF40061104800F092F801BD8C
:103D100080B54FF480510D4800F088F801BD80B5A2
:103D20004FF48051094800F084F801BD80B54FF48C
:103D30000061054800F07AF801BD80B54FF40061DC
:103D4000014800F076F801BD00180140000C014068
:103D500070B4002200250023002600240025CA7824
:103D600012F00F02CB78DB0601D58B781A430B7863
:103D70001B0621D00468002306E0CD78482D02D12F
:103D800001259D4005615B1C082B14D2012515FA05
:103D900003F60D883540B542F5D19E000F25B5409C
:103DA000AC4312FA06F52C43CD78282DE5D1012538
:103DB0009D404561E7E704600B88FF2B26DD4468E2
:103DC000002320E0012513F1080615FA06F60D88F8
:103DD0003540B54216D19E000F25B540AC4312FACE
:103DE00006F52C43CD78282D04D1012513F10806C2
:103DF000B5404561CD78482D04D1012513F1080661
:103E0000B54005615B1C082BDCD3446070BC704777
:103E10000022806889B2084201D0012200E000221D
:103E20001000C0B27047806880B2704789B20161EB
:103E3000704789B24161704730B4002200240023EA
:103E400000242C4A1368C0F3034482B210F44015D6
:103E5000B5F5401F08D133F07063264C246834F068
:103E60007064244D2C6010E0C50206D5032515FAB8
:103E700004F4A34353F0706307E0440DE4B224015B
:103E800012FA04F4A34353F07063C9B2002905D0B9
:103E9000400DC0B2000112FA00F003431548036060
:103EA00030BC704710B400220F2211F00303DBB2C4
:103EB0009B009A40104BC9B28C1053F8243033EA5F
:103EC00002020D4BC9B28C1043F824200A4AC9B231
:103ED0008B1052F82320C0B211F00303DBB29B0019
:103EE00098401043044AC9B2891042F8210010BC1E
:103EF00070470000040001400800014080B55649A9
:103F000088420AD101214FF4006000F0B2F900218B
:103F10004FF4006000F0ADF954E0B0F1804F08D1EB
:103F20000121012000F0B5F90021012000F0B1F9D4
:103F300048E04A49884208D10121022000F0A9F94D
:103F40000021022000F0A5F93CE04549884208D153
:103F50000121042000F09DF90021042000F099F9CE
:103F600030E04049884208D10121082000F091F951
:103F70000021082000F08DF924E03B49884208D157
:103F80000121102000F085F90021102000F081F9B6
:103F900018E03649884208D10121202000F079F943
:103FA0000021202000F075F90CE03149884209D148
:103FB00001214FF4005000F05CF900214FF4005053
:103FC00000F057F901BD10B4028812F08F02028090
:103FD0000288CB884C8823431A4302808A888285D2
:103FE0000A8802851C4A904202D0214A904201D19F
:103FF000097A01860121818210BC704730B4002209
:1040000000230024028C4EF6FF731A400284038CB6
:104010008488828B48F6FF452A400D8852EA0522A3
:104020004DF6FF752B400D8953EA05334D8853EA51
:104030000533094DA84202D00D4DA84204D1A40475
:10404000A40C8D8954EA851484808283C988A0F8E1
:104050004010038430BC7047002C01400004004035
:1040600000080040000C0040001000400014004018
:104070000034014000210180002141800021818025
:104080000021C18000210181002141810021818125
:104090000021C1817047C9B2002904D0018851F0C4
:1040A0000101018004E0018840F2FE3211400180EC
:1040B0007047C9B2002906D0B0F8441051F400414D
:1040C000A0F8441005E0B0F844104904490CA0F8E9
:1040D00044107047D2B2002A03D0828911438181F3
:1040E00003E0828932EA010181817047C9B2002967
:1040F00004D0018851F08001018004E0018840F281
:104100007F321140018070470022828B4FF2FF7393
:104110001A4052EA012282837047A0F8401070478B
:1041200089B2C94301827047002200220023028A1B
:104130000A40808911EA000392B2002A04D09BB29F
:10414000002B01D0012200E000221000C0B2704715
:1041500089B2C94301827047002100210022002159
:104160005449096811F00C01002904D0042905D034
:10417000082906D021E05049016020E04E49016045
:104180001DE04C49096811F470114A4A126812F492
:104190008032890C891C002A03D1484A51430160AE
:1041A0000AE0444A1268920303D5434A514301602E
:1041B00002E0414A5143016001E03F4901603D494D
:1041C000096811F0F00109093D4A895C0268CA409A
:1041D00042603849096811F4E061090A384A895C8B
:1041E0004268CA4082603349096811F46051C90AC3
:1041F000334A895C4268CA40C2602E49096811F49A
:104200004041890B2F4A895CC268B2FBF1F1016120
:104210007047C9B2002905D02B49096808432A49CB
:10422000086005E02849096831EA0000264908606D
:104230007047C9B2002905D02449096808432349B9
:10424000086005E02149096831EA00001F4908605B
:104250007047C9B2002905D01D49096808431C49A7
:10426000086005E01A49096831EA00001849086049
:104270007047C9B2002905D0164909680843154995
:10428000086005E01349096831EA00001149086037
:104290007047C9B2002905D00F49096808430E4983
:1042A000086005E00C49096831EA00000A49086025
:1042B000704700000410024000127A0000093D001F
:1042C0002C1200203C120020141002401810024052
:1042D0001C1002400C1002401010024000202EE082
:1042E0000221DFF8002AC0B2052303FB002211726D
:1042F0000221DFF8F029C0B2052303FB002282F877
:104300003A10DFF8E419C0B20C2202FB0011496830
:10431000DFF8D029C0B2052303FB00225160DFF88B
:10432000C819C0B20C2202FB00114968DFF8B42999
:10433000C0B2052303FB0022C2F83610401CC0B2F5
:104340000A2814DAC0B20328CADA0121DFF8942956
:10435000C0B2052303FB002211720121DFF884297A
:10436000C0B2052303FB002282F83A10C9E70020FF
:10437000DFF8701908600320DFF870194872032015
:10438000DFF8601981F868000320DFF8581981F818
:104390006900704780B500210420FFF76AFF012102
:1043A0000520FFF746FF00210820FFF762FF0121EB
:1043B0000920FFF73EFF0121DFF83409FFF73CFD3C
:1043C00000211020FFF755FF01211120FFF731FFD9
:1043D00000212020FFF74DFF01212120FFF729FFB9
:1043E00000214020FFF745FF01214020FFF721FF7A
:1043F00001BD80B52020ADF8000010208DF803002D
:1044000002208DF802006946DFF8E808FFF7A0FCFB
:104410004FF40040ADF8000010208DF8030002209A
:104420008DF802006946DFF8D008FFF791FC4FF4E1
:104430008060ADF8000010208DF8030002208DF898
:1044400002006946DFF8B408FFF782FC01BD80B5C1
:104450004FF40041DFF8A008FFF7E8FC01BD80B58C
:104460004FF40041DFF89008FFF7E3FC01BD80B591
:104470004FF48061DFF88408FFF7D8FC01BD80B5F8
:104480004FF48061DFF87408FFF7D3FC01BD80B5FD
:104490002021DFF86008FFF7C9FC01BD80B52021AD
:1044A000DFF85008FFF7C5FC01BD00B5A7B002F06A
:1044B00070F85A282CD16422DFF84418002001F04B
:1044C0005CFF0BA801F0B8FFDFF818080BA96C22FD
:1044D00002F07AF801F0FDFFDFF82818087102F009
:1044E0000AF8DFF82418087002F017F8DFF81C1833
:1044F000087002F024F8DFF818180880684602F007
:1045000030F8DFF8100869462A2202F04DF882E000
:104510005A2002F036F80820DFF8F81788704FF4B8
:104520001670DFF8F01708820220DFF8E817C8736A
:104530000020DFF8E01748700920DFF8D81708716D
:10454000DFF8D407DFF8CC174861DFF8D007DFF8D1
:10455000C41788610F20DFF8B8170880FFF7BEFE88
:104560000120DFF8BC1708700220DFF8B8170871C7
:10457000002007E02521DFF89C27C0B2821882F8CE
:104580002010401CC0B20A28F4DB002019E0DFF83C
:104590009817DFF86C27C0B2062303FB00221160D6
:1045A0000321DFF85C27C0B2062303FB0022117150
:1045B0000221DFF84C27C0B2062303FB0022517111
:1045C000401CC0B26428E2DB0220DFF83C17087010
:1045D0006422DFF82C17002001F0ADFEDFF804079D
:1045E00001F0EDFEDFF81C07007901F06AFFDFF84B
:1045F0001807007801F077FFDFF81007007801F066
:1046000084FFDFF80C070088C0B201F090FFDFF8EC
:10461000040701F09EFFDFF8EC060079DFF80C17C5
:104620000871DFF8C806007A50F02100DFF8BC16E8
:104630000872DFF8B00690F86800DFF8B01648722C
:1046400001F04CFCDFF8E806006850F40000DFF8E9
:10465000E016086027B000BD80B5FFF79BFEFFF7AE
:104660000BFBFFF747FB01F0DBFFFFF7C2FEFFF795
:104670000EFF02F09DF83220FFF7FCF9002001F058
:10468000EBFF01F091FDFFF710FF02F0E7F9FBF7F8
:104690004FFD03F000F803F07DF8FFF7F3F903F0A6
:1046A000A5FA03F0D3FF04F009F904F0ACF901F026
:1046B0000FFD0120DFF87C16087001BD80B5DFF822
:1046C00078160978DFF83C261279914202D1C0B2FF
:1046D000002811D0DFF82C060079DFF85C1608708E
:1046E000DFF854060078002803D157A0FCF72EFF0E
:1046F00002E0C2A0FCF72AFF01BD80B5DFF83C163E
:104700000978DFF820261279914202D1C0B2002840
:104710001AD0DFF810060079DFF820160870DFF8ED
:104720001C060078002803D147A0FCF708FF0BE027
:10473000DFF808060078012803D1B1A0FCF7FFFEDE
:1047400002E0B0A0FCF7FBFE01BD80B5DFF8F0157C
:104750000978DFF8CC251278914202D1C0B2002846
:1047600033D0DFF8BC050078DFF8D4150870DFF827
:10477000D0050078022806D1FFF771FEDFF8C405E6
:10478000FCF7BBFE21E0DFF8B8050078012806D170
:10479000FFF765FEDFF8B005FCF7AFFE15E0DFF8C8
:1047A000A0050078052808D1FFF751FEDFF89C0529
:1047B000FCF7A3FE03F04EFA07E0FFF748FEDFF830
:1047C0009005FCF79AFE03F045FA01BD80B5DFF8CD
:1047D00084150978DFF848251278914202D1C0B2D9
:1047E00000282FD0DFF838050078DFF8681508704A
:1047F000DFF860050078022806D1FFF730FEDFF809
:104800004405FEF7D5FD1DE0DFF8480500780128D6
:1048100006D1FFF724FEDFF83005FEF7C9FD11E0F1
:10482000DFF830050078052806D1FFF710FEDFF825
:104830001C05FEF7BDFD05E0FFF709FEDFF81005DA
:10484000FEF7B6FD01BD000020000000C0B2002848
:104850000CD0022826D013D3042841D036D3062802
:1048600072D04FD3072800F08180A1E0DFF8600C00
:104870004078002803D10120DFF8541C4870BCE0C8
:10488000DFF84C0C80780F2804DB0F20DFF8401C89
:10489000887006E0DFF8380C8078401CDFF8301CA8
:1048A0008870AAE0DFF8280C008AB0F5966F05DB67
:1048B0004FF49660DFF8181C088206E0DFF8100C51
:1048C000008A401CDFF8081C088296E0DFF8000C24
:1048D000C078002803D10120DFF8F41BC8708CE0F9
:1048E000DFF8EC0B0079092804DB0920DFF8E01B76
:1048F000087106E0DFF8D80B0079401CDFF8D01B08
:1049000008717AE0DFF8C80B4069DFF8C81B8842FD
:1049100005D3DFF8C00BDFF8B81B486113E0DFF800
:10492000CC03007AC00607D5DFF8A40B40696430D9
:10493000DFF89C1B486106E0DFF8940B4069401CDF
:10494000DFF88C1B486158E0DFF8840BC07B1D2822
:1049500004DB1D20DFF8781BC87306E0DFF8700B5E
:10496000C07B401CDFF8681BC87346E0DFF8600BB3
:104970008069DFF8681B884205D3DFF8600BDFF839
:10498000501B886113E0DFF86403007AC00607D586
:10499000DFF83C0B80696430DFF8341B886106E087
:1049A000DFF82C0B8069401CDFF8241B886124E0B1
:1049B000DFF81C1BC0B24118097E252904D1002153
:1049C000DFF80C2B917310E0DFF8041B897B25299D
:1049D00004DB0021DFF8F82A917306E0DFF8F01A13
:1049E000897B491CDFF8E82A9173DFF8E41A897B98
:1049F000DFF8DC2AC0B28018017670474E00000054
:104A00004D0000004C000000C0B200280CD002286D
:104A100026D013D3042841D036D3062873D04FD3E1
:104A2000072800F08280A3E0DFF8A40A407801287C
:104A300003D10020DFF8981A4870BEE0DFF8900A32
:104A40008078022804DA0120DFF8841A887006E0F2
:104A5000DFF87C0A8078401EDFF8741A8870ACE0BA
:104A6000DFF86C0A008AB0F5FA7F05DC4FF4FA70C3
:104A7000DFF85C1A088206E0DFF8540A008A401E5C
:104A8000DFF84C1A088298E0DFF8440AC078012861
:104A900003D10020DFF8381AC8708EE0DFF8300A42
:104AA0000079002804D10020DFF8241A087106E0FC
:104AB000DFF81C0A0079401EDFF8141A08717CE048
:104AC000DFF80C0A4069002804D10020DFF8001A42
:104AD000486117E08548007AC0060CD5DFF8F00978
:104AE000406964280ED3DFF8E80940696438DFF8CC
:104AF000E019486106E0DFF8D8094069401EDFF898
:104B0000D019486159E0DFF8C809C07B022804DAEF
:104B10000120DFF8BC19C87306E0DFF8B409C07BD8
:104B2000401EDFF8AC19C87347E0DFF8A4098069BC
:104B3000002804D10020DFF89819886117E06B483D
:104B4000007AC0060CD5DFF88809806964280ED386
:104B5000DFF87C0980696438DFF87419886106E041
:104B6000DFF86C098069401EDFF86419886124E071
:104B7000DFF85C19C0B24118097E252904D124212F
:104B8000DFF84C29917310E0DFF84419897B002984
:104B900004D12521DFF83829917306E0DFF83019B8
:104BA000897B491EDFF828299173DFF82419897B56
:104BB000DFF81C29C0B280180176704780B5C0B2FA
:104BC0000028042806D9401F0ED0401E1AD0401ECF
:104BD00022D02FE04548007A10F0EF0043490872D8
:104BE0003FA0FCF791FC2EE04A4840696421B0FBED
:104BF000F1F04849486147484069642148434549C4
:104C0000486120E03948007A10F0EF003749087217
:104C100033A0FCF779FC16E03E4880696421B0FBC4
:104C2000F1F03C4988613B48806964214843394937
:104C3000886108E02D48007A10F0EF002B490872D7
:104C400027A0FCF761FC01BD10B5040034480078D2
:104C5000022805D10A2000FB04F000F2DC501FE01E
:104C60002F480078012805D10A2000FB04F0A0F2AB
:104C7000DC5015E001F067FA002803D00A2000FBA1
:104C800004F00DE0DFF85C080079012805D10A2066
:104C900000FB04F0A0F26A4002E00A2000FB04F0EE
:104CA00010BD80B51E480078022802D1DFF8380810
:104CB00015E01B480078012802D1DFF830080EE02B
:104CC00001F044FA002809D00E480079012802D1E9
:104CD0001048406903E0DFF8180800E0002002BD3A
:104CE000202020002819002000000020841A002025
:104CF000000230000010014000180140000C01408B
:104D000050160020A41A0020D01A0020D41A002027
:104D1000E01A0020181A0020B64C890080F0FA0230
:104D2000D81A00209C1A0020E8C10A00AC1A002002
:104D3000C81A00201B1B00201E1B00201A1B00206D
:104D4000181B0020ECB00008F4B00008FCB000080C
:104D500004B10008191B002010B50024DFF89407E7
:104D600000680128C0F24583DFF88C07007804282A
:104D700004D0DFF88407007805280ED1DFF87C071F
:104D80000079012804D10120DFF85817087108E0E4
:104D90000020DFF85017087103E00020DFF8441707
:104DA0000871DFF850070068DFF85417084200F078
:104DB000D480DFF84007006830F48070DFF83417E3
:104DC0000860DFF84007007A800613D5DFF8240773
:104DD000006800020ED5DFF82C07007AC00704D562
:104DE000DFF82407FCF741FB0EE0DFF82007FCF7B3
:104DF0003CFB09E0DFF80C07007A400704D5DFF838
:104E00000407807AFCF738FBDFF8E8060068000248
:104E10001ED5DFF8F006007A400702D501F0D0F881
:104E20001DE0DFF8E006007AC00707D5DFF8E006EE
:104E300090F86800DFF8CC16487206E0DFF8D0067C
:104E400090F86900DFF8BC16487201F047F806E0F8
:104E5000DFF8B006007A400701D401F077F8DFF8F8
:104E6000A406007AC00618D5DFF88806006800029C
:104E700002D55EA0FCF748FBDFF8880600686421D5
:104E8000B0FBF1F0DFF87C160860DFF87806006808
:104E900064214843DFF86C160860DFF86806007A82
:104EA00010F00C00082831D1DFF848060068000235
:104EB00002D54FA0FCF72FFBDFF848060068FCF78F
:104EC00031FBDFF830060068C01510F00101DFF893
:104ED00034060068DFF8382612681018FCF744FA28
:104EE000DFF820060068DFF8281609680818FFF7C1
:104EF000ABFEDFF8DC15896903F017FDFFF7D1FE83
:104F0000DFF8CC15896903F01EFC1BE0DFF8E4052F
:104F10000068C01510F00101DFF8E8050068FCF733
:104F200023FADFF8E0050068FFF78EFEDFF8A01532
:104F3000896903F0FAFCFFF7B4FEDFF8941589697C
:104F400003F001FCDFF8BC05407A02F05EFCDFF8FC
:104F5000A4050068002800F04C82DFF8980500687E
:104F6000DFF8B015084229D0DFF88805006830F076
:104F70000100DFF880150860DFF89C050068C001BB
:104F800007D5DFF898050078FFF720FC01F034F82A
:104F90000EE0DFF860050068C01510F00100FFF7B3
:104FA000D4FBDFF86005007A400701D400F0CEFFA3
:104FB000DFF840050068002800F01B82DFF83405A8
:104FC0000068DFF85C15084225D0DFF82805006886
:104FD00030F02000DFF81C150860DFF808050079C4
:104FE000012807D10120FEF765FE06E054530000BA
:104FF000524954000020FEF75DFEDFF8F804006817
:10500000C01510F00100FFF759FBDFF8E804006855
:10501000002800F0EE81DFF8DC040068B0F1807F4A
:1050200080F2E881DFF8F0040068002840F0E281B7
:10503000DFF8C004006810F0801F32D0DFF8B4043D
:10504000006830F08000DFF8AC14086002F03AFB32
:1050500040F6C4114843DFF8CC140860DFF8C404FC
:105060000068000BDFF8BC140860DFF8B8040068C3
:105070000B214843DFF8AC140860DFF8A80400688F
:105080006421B0FBF1F0DFF8A0140880DFF8980489
:105090000088FCF72AFADFF85C040068002800F0BA
:1050A000A881DFF850040068DFF88014084250D06F
:1050B000DFF84004006830F48060DFF838140860DE
:1050C00002F020FBDFF85C140860DFF85804006889
:1050D00040F23F21884201D309241DE0DFF8440457
:1050E0000068B0F5B47F09D9DFF838040068B0F57E
:1050F000B4704721B0FBF1F0841D0DE0DFF824040B
:105100000068152807D3DFF81C040068143838211C
:10511000B0FBF1F400E000242000C0B2FCF773FA09
:10512000DFF8AC030079E4B284420CD3DFF8A003CB
:105130000079002807D000F0CBFFFEF740F90120EE
:10514000DFF8EC130880DFF8AC030068002800F0FB
:105150005081DFF8A0030068DFF8D81308423ED082
:10516000DFF89003006830F40060DFF8881308600F
:1051700002F0B8FADFF8AC130860DFF8A8030068A3
:1051800040F23A41884201D30B241EE0DFF8940339
:10519000006840F20331884209D3DFF888030068D1
:1051A000A0F202303E21B0FBF1F0841D0DE0DFF8EB
:1051B00074030068152807D3DFF868030068143803
:1051C0007D21B0FBF1F400E000242000C0B2FCF728
:1051D00051FADFF820030068002800F00A81C54872
:1051E0000068DFF85413084256D0C248006830F413
:1051F0008050C049086002F095FADFF82813086073
:10520000DFF82003006840F65D71884201D319245D
:1052100039E0C448006840F6CD41884209D3C1480E
:105220000068A0F6CC40A421B0FBF1F010F1150409
:1052300029E0BC48006840F66911884209D3B948A2
:105240000068A0F66810D921B0FBF1F010F111044C
:1052500019E0B4480068842809D3B248006883384C
:1052600040F24511B0FBF1F010F10A040BE0AD483B
:105270000068212806D3AB48006820380B21B0FB1A
:10528000F1F400E000242000C0B2FCF785F9994851
:105290000068002800F0AD8096480068DFF8AC1B7D
:1052A000084214D09348006830F002009149086029
:1052B000DFF8180C0078FCF7E7F8DFF8100C00783E
:1052C00001F0CAF98B480068002800F092808948F4
:1052D0000068DFF8FC1B08420ED08648006830F0FA
:1052E000040084490860DFF8EC0B0078FCF7D4F880
:1052F0008048006800287CD07E480068DFF8D81B12
:1053000008421AD07B48006830F0100079490860E4
:1053100078480068C01510F00100FFF7EEF9DFF8DB
:10532000240C0079022802D1FFF7A9F801E0FFF769
:105330009EF87048006800285BD06E480068DFF86F
:10534000081C084241D06B48006830F4007069497D
:10535000086000F0FBFE00281AD05FA0FCF7AEF852
:105360006848007A10F00C00082828D165480068C9
:10537000674909680818FFF767FC5549896903F010
:10538000D4FAFFF78EFC5249896903F0DCF916E084
:1053900053A0FCF793F85B48007A10F00C00082843
:1053A0000DD158480068FFF74FFC4949896903F05F
:1053B000BCFAFFF776FC4649896903F0C4F9FCF7AB
:1053C000D2F84C480068002813D04A480068000210
:1053D00003D5FBF7EAFFFBF7EEFF46480068000243
:1053E00007D5FAF7F2FE4348006830F4000041495F
:1053F000086010BD3F480068C00127D53D480068DF
:1054000030F080703B4908603E48007AC0060CD5F9
:105410003C4800686421B0FBF1F03A490860394823
:10542000006864214843374908603C4802783548A1
:1054300001683448807AFDF7D0FF002037490870B2
:1054400000F0DAFD2B4800680028D2D02948006817
:1054500080010FD52748006830F0007025490860AA
:10546000DFF8E80B0088C0B2FCF72FF8214800688D
:105470000028BED01F4800684001AED51D48006816
:1054800030F080601B4908601E48007AC00603D5D2
:105490000F480078FFF792FB0D480078FDF782FE79
:1054A0000B480078FDF71AFE16480068FFF7CCFBA2
:1054B0000749896903F039FAFFF7F3FB0449896961
:1054C00003F041F90B480068002886D191E70000FD
:1054D000181A00207F96980052580000FFE0F5054A
:1054E00054580000A41A00201C5A8900644E8900F8
:1054F00020518900C81A0020D81A0020AC1A0020B8
:1055000000018000841A00200CB1000814B10008CA
:105510002819002001008000CC1A0020171B002051
:1055200020008000E41A0020DC1A00200004800023
:10553000081B0020000880000010800080B5DFF804
:10554000180C0078022804D0DFF80C0C0078012831
:105550002DD1DFF8B40B0078DFF8B01B097891F09B
:105560000101084206D00120DFF8A01B087000F0FE
:10557000CFFD1CE0DFF8900B0078DFF8901B097876
:1055800091F001010843C0B2002810D10020DFF8DB
:105590007C1B087000F09CFDDFF8C00B0088002821
:1055A00005D00020DFF8B41B0880FDF70FFFDFF8FF
:1055B000B00B01F014FC002800F04484DFF8A00BCD
:1055C0004078012814D0C0F03B84032800F02C81DF
:1055D0005BD3052800F06C82C0F0BA81072800F088
:1055E0009183C0F00183082800F0D68300F028BC26
:1055F000DFF8700B0068400103D400F0A4FD002820
:1056000001D000F01DBCDFF8580B007801283BD01A
:10561000DFF84C0B0078022836D1DFF84C0B00780D
:10562000002831D00020DFF8401B0870DFF83C0B69
:105630000078421CD2B2DFF8381B002000F07BFE5D
:10564000DFF8300B00F0BBFEDFF82C0B007900F028
:1056500038FFDFF87808007800F045FFDFF87408BD
:10566000007800F052FFDFF8E4090088C0B200F0D3
:105670005EFFDFF8080B00F06CFFFAF7ABFD64206B
:10568000FEF7F8F9FEF70AFFDAE3DFF8D80A006858
:10569000400100F1C88000F056FD002840F0C380B2
:1056A000DFF8BC0A0078012840F08280DFF8B40AF5
:1056B0000068C00115D5DFF8AC0A006830F08070D2
:1056C000DFF8A01A0860DFF8B80A006850F400009C
:1056D000DFF8AC1A086000F08FFC0020FAF77FFDBD
:1056E000A1E0DFF8A00A007A80061AD5DFF8940A54
:1056F000007A10F0DF00DFF88C1A0872DFF8840AF5
:10570000007A50F00400DFF87C1A0872DFF8700AA3
:10571000006850F02000DFF8681A086000F050FCC4
:105720002DE0DFF8600A007A10F0FB00DFF8541A71
:105730000872DFF8500A007A50F02000DFF8441AAF
:105740000872DFF8400A007AC0070BD5DFF8380A84
:10575000FBF78BFEDFF81C0A90F86800DFF8241ACC
:1057600048720AE0DFF8240AFBF77FFEDFF8040A3C
:1057700090F86900DFF80C1A487200F0AFFBDFF810
:10578000000A006850F00100DFF8F4190860DFF843
:10579000F009006850F48070DFF8E4190860DFF861
:1057A000E009006850F02000DFF8D41908603AE002
:1057B000DFF8AC090078022835D1DFF8C809007A93
:1057C000400730D500F0FCFB0020FAF708FDDFF8B9
:1057D0009409006850F08070DFF888190860DFF8DD
:1057E000A009006850F08070DFF894190860DFF8B5
:1057F0009009006850F00100DFF884190860DFF8B4
:105800008009006850F02000DFF87419086001205A
:10581000DFF87C190870DFF86C09007AC00602D541
:1058200093A0FBF771FE0BE3DFF838090068400135
:1058300000F18D8000F087FC002840F08880DFF8C0
:1058400020090078012848D1DFF80C0900780128E8
:105850000ED1DFF840090078042804D10420DFF8D5
:10586000F818087012E00520DFF8EC1808700DE059
:10587000DFF8E4080078022804D10120DFF8D81806
:10588000087003E00220DFF8D0180870DFF8D408B1
:105890000068C00108D5DFF8E808006850F08070A3
:1058A000DFF8DC18086007E0DFF8D408006850F47F
:1058B0008070DFF8CC180860DFF8C408006850F08A
:1058C0000100DFF8BC180860DFF8B408006850F089
:1058D0002000DFF8AC18086039E0DFF884080078B1
:1058E000022834D1DFF870080078042804D0DFF8EB
:1058F0006808007805282AD1DFF87C08007900289C
:1059000008D10120DFF8701808710120DFF888182D
:10591000087107E00020DFF8601808710020DFF848
:1059200078180871DFF85808006850F02000DFF898
:1059300050180860DFF82C080068C00107D4DFF8B1
:105940004008006850F48070DFF83418086077E28F
:10595000DFF810080068400100F1A98000F0F3FBB7
:10596000002840F0A480DFF8F8070078012861D112
:10597000DFF8F007006800285CD1DFF80808007A3B
:10598000800640F19480DFF8FC07007A80071BD581
:10599000DFF8F007007A50F00100DFF8E81708722E
:1059A000DFF8E007007A10F0FD00DFF8D817087282
:1059B000DFF8D407FBF759FDDFF8B80790F8680067
:1059C000DFF8C01748721AE0DFF8B807007A50F025
:1059D0000200DFF8B0170872DFF8A807007A10F0AD
:1059E000FE00DFF8A0170872DFF8A007FBF73DFD07
:1059F000DFF8800790F86900DFF88817487200F038
:105A00006DFADFF87C07006850F48070DFF87017DB
:105A10000860DFF86C07006850F00100DFF86017DD
:105A20000860DFF85C07006850F02000DFF85017CE
:105A300008603CE0DFF828070078022837D1DFF85B
:105A400018070078042804D0DFF80C070078052830
:105A50002DD1DFF80407007804280BD10520DFF8EA
:105A6000341708700520DFF8F01608700AE000BF50
:105A7000545300000420DFF8E01608700420DFF81B
:105A800014170870DFF8DC060068C00107D5DFF8DE
:105A9000F006006850F08070DFF8E4160860DFF868
:105AA000E006006850F00100DFF8D4160860C7E196
:105AB00000F049FB002840F09680DFF8A40600784B
:105AC00001286CD1DFF89C060068400117D5DFF88B
:105AD0009406006830F08060DFF888160860DFF810
